:020000040000FA
:04000000DBEF28F01A
:10080000000000004B000040413333F34000004043
:10081000405E012C01F401F40110278813536F6925
:100820006C20697320736F616B656400496C20668E
:100830006169742068756D69646500496C20666142
:1008400069742066726F696400496C20666169741E
:1008500020636861756400202020204172726F73EC
:1008600061676500496C2066616974206A6F757202
:100870000047617264656E20496E666F7300496C53
:100880002066616974206E75697400496C20666128
:1008900069742073656300536F696C2069732077F6
:1008A000657400536F696C2069732064727900204D
:1008B00054696D653A0031383000393000256400E4
:0108C0000037
:1008C200025007E1190E015CD8B06AEF04F06CEF38
:1008D20004F072EF04F0000E046E000E036E0AEFD5
:1008E20009F0025009E1190E015CD8A07BEF04F077
:1008F2007DEF04F08EEF04F0025007E1320E015C4E
:10090200D8B086EF04F088EF04F08EEF04F0000E0A
:10091200046E010E036E0AEF09F0025009E1320E75
:10092200015CD8A097EF04F099EF04F0AAEF04F06D
:10093200025007E14B0E015CD8B0A2EF04F0A4EF25
:1009420004F0AAEF04F0000E046E020E036E0AEF2A
:1009520009F0025009E14B0E015CD8A0B3EF04F09C
:10096200B5EF04F0C6EF04F0025007E1640E015C3B
:10097200D8B0BEEF04F0C0EF04F0C6EF04F0000EF2
:10098200046E030E036E0AEF09F0025009E1640ED1
:10099200015CD8A0CFEF04F0D1EF04F0E2EF04F055
:1009A200025007E17D0E015CD8B0DAEF04F0DCEF13
:1009B20004F0E2EF04F0000E046E040E036E0AEF80
:1009C20009F0025009E17D0E015CD8A0EBEF04F0C2
:1009D200EDEF04F0FEEF04F0025007E1960E015C29
:1009E200D8B0F6EF04F0F8EF04F0FEEF04F0000EDA
:1009F200046E050E036E0AEF09F0025009E1960E2D
:100A0200015CD8A007EF05F009EF05F01AEF05F039
:100A1200025007E1AF0E015CD8B012EF05F014EFFF
:100A220005F01AEF05F0000E046E060E036E0AEFD3
:100A320009F0025009E1AF0E015CD8A023EF05F0E6
:100A420025EF05F036EF05F0025007E1C80E015C14
:100A5200D8B02EEF05F030EF05F036EF05F0000EBE
:100A6200046E070E036E0AEF09F0025009E1C80E88
:100A7200015CD8A03FEF05F041EF05F052EF05F021
:100A8200025007E1E10E015CD8B04AEF05F04CEFED
:100A920005F052EF05F0000E046E080E036E0AEF29
:100AA20009F0025009E1E10E015CD8A05BEF05F00C
:100AB2005DEF05F06EEF05F0025007E1FA0E015C02
:100AC200D8B066EF05F068EF05F06EEF05F0000EA6
:100AD200046E090E036E0AEF09F0025009E1FA0EE4
:100AE200015CD8A077EF05F079EF05F08AEF05F009
:100AF200130E015C010E0258D8B082EF05F084EFAC
:100B020005F08AEF05F0000E046E0A0E036E0AEF7E
:100B120009F0130E015C010E0258D8A093EF05F004
:100B220095EF05F0A6EF05F02C0E015C010E0258C0
:100B3200D8B09EEF05F0A0EF05F0A6EF05F0000E8D
:100B4200046E0B0E036E0AEF09F02C0E015C010E0F
:100B52000258D8A0AFEF05F0B1EF05F0C2EF05F0F3
:100B6200450E015C010E0258D8B0BAEF05F0BCEF99
:100B720005F0C2EF05F0000E046E0C0E036E0AEFD4
:100B820009F0450E015C010E0258D8A0CBEF05F02A
:100B9200CDEF05F0DEEF05F05E0E015C010E0258AE
:100BA200D8B0D6EF05F0D8EF05F0DEEF05F0000E75
:100BB200046E0D0E036E0AEF09F05E0E015C010E6B
:100BC2000258D8A0E7EF05F0E9EF05F0FAEF05F0DB
:100BD200770E015C010E0258D8B0F2EF05F0F4EF87
:100BE20005F0FAEF05F0000E046E0E0E036E0AEF2A
:100BF20009F0770E015C010E0258D8A003EF06F04F
:100C020005EF06F016EF06F0900E015C010E025899
:100C1200D8B00EEF06F010EF06F016EF06F0000E59
:100C2200046E0F0E036E0AEF09F0900E015C010EC6
:100C32000258D8A01FEF06F021EF06F032EF06F0BF
:100C4200A90E015C010E0258D8B02AEF06F02CEF73
:100C520006F032EF06F0000E046E100E036E0AEF7D
:100C620009F0A90E015C010E0258D8A03BEF06F074
:100C72003DEF06F04EEF06F0C20E015C010E025887
:100C8200D8B046EF06F048EF06F04EEF06F0000E41
:100C9200046E110E036E0AEF09F0C20E015C010E22
:100CA2000258D8A057EF06F059EF06F06AEF06F0A7
:100CB200DB0E015C010E0258D8B062EF06F064EF61
:100CC20006F06AEF06F0000E046E120E036E0AEFD3
:100CD20009F0DB0E015C010E0258D8A073EF06F09A
:100CE20075EF06F086EF06F0F40E015C010E025875
:100CF200D8B07EEF06F080EF06F086EF06F0000E29
:100D0200046E130E036E0AEF09F0F40E015C010E7D
:100D12000258D8A08FEF06F091EF06F0A2EF06F08E
:100D22000D0E015C020E0258D8B09AEF06F09CEF4D
:100D320006F0A2EF06F0000E046E140E036E0AEF28
:100D420009F00D0E015C020E0258D8A0ABEF06F0BE
:100D5200ADEF06F0BEEF06F0260E015C020E025861
:100D6200D8B0B6EF06F0B8EF06F0BEEF06F0000E10
:100D7200046E150E036E0AEF09F0260E015C020ED8
:100D82000258D8A0C7EF06F0C9EF06F0DAEF06F076
:100D92003F0E015C020E0258D8B0D2EF06F0D4EF3B
:100DA20006F0DAEF06F0000E046E160E036E0AEF7E
:100DB20009F03F0E015C020E0258D8A0E3EF06F0E4
:100DC200E5EF06F0F6EF06F0580E015C020E02584F
:100DD200D8B0EEEF06F0F0EF06F0F6EF06F0000EF8
:100DE200046E170E036E0AEF09F0580E015C020E34
:100DF2000258D8A0FFEF06F001EF07F012EF07F05C
:100E0200710E015C020E0258D8B00AEF07F00CEF27
:100E120007F012EF07F0000E046E180E036E0AEFD1
:100E220009F0710E015C020E0258D8A01BEF07F008
:100E32001DEF07F02EEF07F08A0E015C020E02583A
:100E4200D8B026EF07F028EF07F02EEF07F0000EDC
:100E5200046E190E036E0AEF09F08A0E015C020E8F
:100E62000258D8A037EF07F039EF07F04AEF07F042
:100E7200A30E015C020E0258D8B042EF07F044EF15
:100E820007F04AEF07F0000E046E1A0E036E0AEF27
:100E920009F0A30E015C020E0258D8A053EF07F02E
:100EA20055EF07F066EF07F0BC0E015C020E025828
:100EB200D8B05EEF07F060EF07F066EF07F0000EC4
:100EC200046E1B0E036E0AEF09F0BC0E015C020EEB
:100ED2000258D8A06FEF07F071EF07F082EF07F02A
:100EE200D50E015C020E0258D8B07AEF07F07CEF03
:100EF20007F082EF07F0000E046E1C0E036E0AEF7D
:100F020009F0D50E015C020E0258D8A08BEF07F053
:100F12008DEF07F09EEF07F0EE0E015C020E025815
:100F2200D8B096EF07F098EF07F09EEF07F0000EAB
:100F3200046E1D0E036E0AEF09F0EE0E015C020E46
:100F42000258D8A0A7EF07F0A9EF07F0BAEF07F011
:100F5200070E015C030E0258D8B0B2EF07F0B4EFEF
:100F620007F0BAEF07F0000E046E1E0E036E0AEFD2
:100F720009F0070E015C030E0258D8A0C3EF07F078
:100F8200C5EF07F0D6EF07F0200E015C030E025802
:100F9200D8B0CEEF07F0D0EF07F0D6EF07F0000E93
:100FA200046E1F0E036E0AEF09F0200E015C030EA1
:100FB2000258D8A0DFEF07F0E1EF07F0F2EF07F0F9
:100FC200390E015C030E0258D8B0EAEF07F0ECEFDD
:100FD20007F0F2EF07F0000E046E200E036E0AEF28
:100FE20009F0390E015C030E0258D8A0FBEF07F09E
:100FF200FDEF07F00EEF08F0520E015C030E0258EF
:10100200D8B006EF08F008EF08F00EEF08F0000E77
:10101200046E210E036E0AEF09F0520E015C030EFC
:101022000258D8A017EF08F019EF08F02AEF08F0DD
:101032006B0E015C030E0258D8B022EF08F024EFC9
:1010420008F02AEF08F0000E046E220E036E0AEF7B
:1010520009F06B0E015C030E0258D8A033EF08F0C2
:1010620035EF08F046EF08F0840E015C030E0258DB
:10107200D8B03EEF08F040EF08F046EF08F0000E5F
:10108200046E230E036E0AEF09F0840E015C030E58
:101092000258D8A04FEF08F051EF08F062EF08F0C5
:1010A2009D0E015C030E0258D8B05AEF08F05CEFB7
:1010B20008F062EF08F0000E046E240E036E0AEFD1
:1010C20009F09D0E015C030E0258D8A06BEF08F0E8
:1010D2006DEF08F07EEF08F0B60E015C030E0258C9
:1010E200D8B076EF08F078EF08F07EEF08F0000E47
:1010F200046E250E036E0AEF09F0B60E015C030EB4
:101102000258D8A087EF08F089EF08F09AEF08F0AC
:10111200CF0E015C030E0258D8B092EF08F094EFA4
:1011220008F09AEF08F0000E046E260E036E0AEF26
:1011320009F0CF0E015C030E0258D8A0A3EF08F00D
:10114200A5EF08F0B6EF08F0E80E015C030E0258B6
:10115200D8B0AEEF08F0B0EF08F0B6EF08F0000E2E
:10116200046E270E036E0AEF09F0000E046E280EBD
:10117200036E0AEF09F00AEF09F00AEF09F00AEF2D
:1011820009F00AEF09F00AEF09F00AEF09F00AEF95
:1011920009F00AEF09F00AEF09F00AEF09F00AEF85
:1011A20009F00AEF09F00AEF09F00AEF09F00AEF75
:1011B20009F00AEF09F00AEF09F00AEF09F00AEF65
:1011C20009F00AEF09F00AEF09F00AEF09F00AEF55
:1011D20009F00AEF09F00AEF09F00AEF09F00AEF45
:1011E20009F00AEF09F00AEF09F00AEF09F00AEF35
:1011F20009F00AEF09F00AEF09F00AEF09F00AEF25
:1012020009F00AEF09F00AEF09F00AEF09F00AEF14
:1012120009F003C001F004C002F010EF09F012005F
:10122200320E0001726F000E736F000E746F000EAB
:10123200756F79EC18F072C093F073C094F0170ECA
:10124200F66E080EF76E00018C510900F55C09007C
:10125200F550800A926F8D51800A9259D8B034EFBE
:1012620009F036EF09F09EEF09F0150EF66E080E42
:10127200F76E0900F5508E5D8F51800A926F09005A
:10128200F550800A9259D8B049EF09F04BEF09F0B6
:101292009EEF09F0130EF66E080EF76E0900F55078
:1012A200905D9151800A926F0900F550800A92591F
:1012B200D8B05EEF09F060EF09F09EEF09F0050E7D
:1012C200F66E080EF76E0900F5CF6AF00900F5CF49
:1012D2006BF00900F5CF6CF00A00F5CF6DF0190E36
:1012E200F66E080EF76E0900F5CF6EF00A00F5CF24
:1012F2006FF07EEC22F0050EF66E080EF76E090016
:10130200F5CF6EF00900F5CF6FF00900F5CF70F060
:101312000A00F5CF71F093C072F094C073F0190E09
:10132200F66E080EF76E0900F5CF74F00A00F5CFDD
:1013320075F074EC2BF09EEF09F0170EF66E080EA6
:10134200F76E00018C510900F55C0900F550800A26
:10135200926F8D51800A9259D8B0B2EF09F0B4EF72
:1013620009F01CEF0AF0150EF66E080EF76E8E519C
:101372000900F55C0900F550800A926F8F51800ACE
:101382009259D8B0C7EF09F0C9EF09F01CEF0AF083
:10139200130EF66E080EF76E0900F550905D91512E
:1013A200800A926F0900F550800A9259D8B0DCEF9A
:1013B20009F0DEEF09F01CEF0AF0050EF66E080EDA
:1013C200F76E0900F5CF6AF00900F5CF6BF009005E
:1013D200F5CF6CF00A00F5CF6DF01B0EF66E080E1D
:1013E200F76E0900F5CF6EF00A00F5CF6FF07EECD4
:1013F20022F0050EF66E080EF76E0900F5CF6EF0BC
:101402000900F5CF6FF00900F5CF70F00A00F5CFB3
:1014120071F093C072F094C073F01B0EF66E080E5A
:10142200F76E0900F5CF74F00A00F5CF75F074EC91
:101432002BF01CEF0AF0170EF66E080EF76E09007D
:10144200F55000018C5D8D51800A926F0900F550B4
:10145200800A9259D8B030EF0AF032EF0AF09AEFD0
:101462000AF0150EF66E080EF76E0900F5508E5D45
:101472008F51800A926F0900F550800A9259D8B0B4
:1014820045EF0AF047EF0AF09AEF0AF0130EF66EF4
:10149200080EF76E0900F550905D9151800A926F27
:1014A2000900F550800A9259D8B05AEF0AF05CEF61
:1014B2000AF09AEF0AF0090EF66E080EF76E0900AE
:1014C200F5CF6AF00900F5CF6BF00900F5CF6CF0AB
:1014D2000A00F5CF6DF0190EF66E080EF76E0900D0
:1014E200F5CF6EF00A00F5CF6FF07EEC22F0090E18
:1014F200F66E080EF76E0900F5CF6EF00900F5CF13
:101502006FF00900F5CF70F00A00F5CF71F093C0CB
:1015120072F094C073F0190EF66E080EF76E0900A1
:10152200F5CF74F00A00F5CF75F074EC2BF09AEF5A
:101532000AF0170EF66E080EF76E0900F55000015C
:101542008C5D8D51800A926F0900F550800A925984
:10155200D8B0AEEF0AF0B0EF0AF018EF0BF0150EAC
:10156200F66E080EF76E8E510900F55C0900F55013
:10157200800A926F8F51800A9259D8B0C3EF0AF055
:10158200C5EF0AF018EF0BF0130EF66E080EF76EA9
:101592000900F550905D9151800A926F0900F55053
:1015A200800A9259D8B0D8EF0AF0DAEF0AF018EFB1
:1015B2000BF0090EF66E080EF76E0900F5CF6AF011
:1015C2000900F5CF6BF00900F5CF6CF00A00F5CFFA
:1015D2006DF01B0EF66E080EF76E0900F5CF6EF079
:1015E2000A00F5CF6FF07EEC22F0090EF66E080EBF
:1015F200F76E0900F5CF6EF00900F5CF6FF0090024
:10160200F5CF70F00A00F5CF71F093C072F094C07C
:1016120073F01B0EF66E080EF76E0900F5CF74F02C
:101622000A00F5CF75F074EC2BF018EF0BF0170EE3
:10163200F66E080EF76E00018C510900F55C090088
:10164200F550800A926F8D51800A9259D8B02CEFD2
:101652000BF02EEF0BF096EF0BF0150EF66E080E58
:10166200F76E0900F5508E5D8F51800A926F090066
:10167200F550800A9259D8B041EF0BF043EF0BF0CE
:1016820096EF0BF0130EF66E080EF76E90510900EE
:10169200F55C0900F550800A926F9151800A9259C7
:1016A200D8B056EF0BF058EF0BF096EF0BF0090E97
:1016B200F66E080EF76E0900F5CF6AF00900F5CF55
:1016C2006BF00900F5CF6CF00A00F5CF6DF0190E42
:1016D200F66E080EF76E0900F5CF6EF00A00F5CF30
:1016E2006FF07EEC22F0090EF66E080EF76E09001E
:1016F200F5CF6EF00900F5CF6FF00900F5CF70F06D
:101702000A00F5CF71F093C072F094C073F0190E15
:10171200F66E080EF76E0900F5CF74F00A00F5CFE9
:1017220075F074EC2BF096EF0BF0170EF66E080EB8
:10173200F76E00018C510900F55C0900F550800A32
:10174200926F8D51800A9259D8B0AAEF0BF0ACEF8C
:101752000BF014EF0CF0150EF66E080EF76E8E51AC
:101762000900F55C0900F550800A926F8F51800ADA
:101772009259D8B0BFEF0BF0C1EF0BF014EF0CF0A1
:10178200130EF66E080EF76E90510900F55C090013
:10179200F550800A926F9151800A9259D8B0D4EFD5
:1017A2000BF0D6EF0BF014EF0CF0090EF66E080EEC
:1017B200F76E0900F5CF6AF00900F5CF6BF009006A
:1017C200F5CF6CF00A00F5CF6DF0190EF66E080E2B
:1017D200F76E0900F5CF6EF00A00F5CF6FF07EECE0
:1017E20022F0090EF66E080EF76E0900F5CF6EF0C4
:1017F2000900F5CF6FF00900F5CF70F00A00F5CFC0
:1018020071F093C072F094C073F0190EF66E080E68
:10181200F76E0900F5CF74F00A00F5CF75F074EC9D
:101822002BF014EF0CF0170EF66E080EF76E09008F
:10183200F55000018C5D8D51800A926F0900F550C0
:10184200800A9259D8B028EF0CF02AEF0CF092EFF0
:101852000CF0150EF66E080EF76E0900F5508E5D4F
:101862008F51800A926F0900F550800A9259D8B0C0
:101872003DEF0CF03FEF0CF092EF0CF0130EF66E12
:10188200080EF76E90510900F55C0900F550800AC8
:10189200926F9151800A9259D8B052EF0CF054EFE6
:1018A2000CF092EF0CF0090EF66E080EF76E0900BE
:1018B200F5CF6AF00900F5CF6BF00900F5CF6CF0B7
:1018C2000A00F5CF6DF01B0EF66E080EF76E0900DA
:1018D200F5CF6EF00A00F5CF6FF07EEC22F0090E24
:1018E200F66E080EF76E0900F5CF6EF00900F5CF1F
:1018F2006FF00900F5CF70F00A00F5CF71F093C0D8
:1019020072F094C073F01B0EF66E080EF76E0900AB
:10191200F5CF74F00A00F5CF75F074EC2BF092EF6E
:101922000CF0170EF66E080EF76E0900F550000166
:101932008C5D8D51800A926F0900F550800A925990
:10194200D8B0A6EF0CF0A8EF0CF010EF0DF0150ECA
:10195200F66E080EF76E8E510900F55C0900F5501F
:10196200800A926F8F51800A9259D8B0BBEF0CF067
:10197200BDEF0CF010EF0DF0130EF66E080EF76EC1
:1019820090510900F55C0900F550800A926F91515F
:10199200800A9259D8B0D0EF0CF0D2EF0CF010EFD1
:1019A2000DF0090EF66E080EF76E0900F5CF6AF01B
:1019B2000900F5CF6BF00900F5CF6CF00A00F5CF06
:1019C2006DF01B0EF66E080EF76E0900F5CF6EF085
:1019D2000A00F5CF6FF07EEC22F0090EF66E080ECB
:1019E200F76E0900F5CF6EF00900F5CF6FF0090030
:1019F200F5CF70F00A00F5CF71F093C072F094C089
:101A020073F01B0EF66E080EF76E0900F5CF74F038
:101A12000A00F5CF75F074EC2BF010EF0DF00D0EFF
:101A2200F66E080EF76E0900F5CF60F00900F5CFEB
:101A320061F00900F5CF62F00A00F5CF63F093C0C0
:101A420064F094C065F01AEC23F0130E026E880E57
:101A5200016ECDEC27F012004450800B516E4450C1
:101A62004424536E43AE38EF0DF03AEF0DF03DEFE4
:101A72000DF053803DEF0DF05350D8B443EF0DF00D
:101A820045EF0DF05CEF0DF05328D8A44BEF0DF0AD
:101A92004DEF0DF057EF0DF0000E416E000E426E4D
:101AA200000E436E000E446E57EF0DF0438E000E93
:101AB200446E66EF0DF0000E416E000E426E000E97
:101AC200436E000E446E66EF0DF04850800B526E6E
:101AD20051505218D8B470EF0DF072EF0DF075EF4F
:101AE2000DF0518C75EF0DF048504824526E47AE00
:101AF2007DEF0DF07FEF0DF082EF0DF0528082EF5F
:101B02000DF05250D8B488EF0DF08AEF0DF0A1EF2E
:101B12000DF05228D8A490EF0DF092EF0DF09CEF4B
:101B22000DF0000E456E000E466E000E476E000E62
:101B3200486E9CEF0DF0478E000E486EABEF0DF035
:101B4200000E456E000E466E000E476E000E486E89
:101B5200ABEF0DF05350525CD8B0B2EF0DF0B4EFD2
:101B62000DF0DFEF0DF051ACB9EF0DF0BBEF0DF062
:101B7200BFEF0DF0800E511ABFEF0DF053C054F0BD
:101B820052C053F054C052F041C054F045C041F02D
:101B920054C045F042C054F046C042F054C046F032
:101BA20043C054F047C043F054C047F044C054F01F
:101BB20048C044F054C048F0DFEF0DF0000E546E00
:101BC2005350496E4A6A491E4A1E494A4A2A52508D
:101BD2004B6E4C6A49504B264A504C224CBEFBEF8E
:101BE2000DF04C5009E11A0E4B5CD8A0FBEF0DF042
:101BF200FDEF0DF03AEF0EF0415042104310441049
:101C0200D8A406EF0EF009EF0EF0010E0AEF0EF067
:101C1200000E546E000E416E000E426E000E436EB8
:101C2200000E446E52C053F045EF0EF03AEF0EF044
:101C320054A01EEF0EF020EF0EF026EF0EF0D8901B
:101C420054300109546E2AEF0EF0D89054322AEF24
:101C52000EF041A02FEF0EF031EF0EF034EF0EF048
:101C6200548E34EF0EF04434443243324232413225
:101C7200532A5250535CD8A041EF0EF043EF0EF0BE
:101C820019EF0EF045EF0EF051BC4AEF0EF04CEF9B
:101C92000EF094EF0EF05350D8A452EF0EF054EF22
:101CA2000EF060EF0EF0000E416E000E426E000E5E
:101CB200436E000E446EEEEF0FF0EEEF0FF0455064
:101CC200412646504222475043224850442244A0D3
:101CD2006DEF0EF06FEF0EF044EF0FF054A074EFC3
:101CE2000EF076EF0EF07CEF0EF0D8905430010932
:101CF200546E80EF0EF0D890543280EF0EF041A077
:101D020085EF0EF087EF0EF08AEF0EF0548E8AEF19
:101D12000EF044344432433242324132532A44EFC9
:101D22000FF044EF0FF04550415C46504258475087
:101D320043584450800A496E4850800A4958D8B0E6
:101D4200A5EF0EF0A7EF0EF0E5EF0EF041C049F05F
:101D520042C04AF043C04BF044C04CF0491E4A1EF8
:101D62004B1E4C1E492A000E4A224B224C22455041
:101D720049244D6E46504A204E6E47504B204F6EBE
:101D820048504C20506EFF0E4D24416EFF0E4E20E7
:101D9200426EFF0E4F20436EFF0E5020446E800EA7
:101DA200511A546C5450D8A4D9EF0EF0DBEF0EF058
:101DB200EDEF0EF0010E4126000E42224322442294
:101DC200EDEF0EF0EDEF0EF04550415E4650425AF7
:101DD2004750435A4850445A41504210431044100D
:101DE200D8A4F6EF0EF0F8EF0EF039EF0FF05450E2
:101DF200D8A4FEEF0EF000EF0FF039EF0FF0000E57
:101E0200416E000E426E000E436E000E446EEEEF07
:101E12000FF0EEEF0FF039EF0FF0D8904136423667
:101E22004336443654AE18EF0FF01AEF0FF01DEFA1
:101E32000FF041801DEF0FF054A022EF0FF024EFBE
:101E42000FF028EF0FF0D88054362CEF0FF0D89017
:101E520054362CEF0FF05350D8B432EF0FF034EF6A
:101E62000FF039EF0FF0530639EF0FF039EF0FF0A3
:101E720043AE3EEF0FF040EF0FF00EEF0FF044EFE6
:101E82000FF044EF0FF0000E526E54AE4BEF0FF016
:101E92004DEF0FF069EF0FF054C049F07F0E491675
:101EA200D8B456EF0FF058EF0FF05CEF0FF0010EC1
:101EB200526E69EF0FF041A061EF0FF063EF0FF088
:101EC20069EF0FF0010E526E69EF0FF069EF0FF03C
:101ED2005250D8B46FEF0FF071EF0FF0A2EF0FF086
:101EE200010E4126000E42224322442244A07CEFEE
:101EF2000FF07EEF0FF0A2EF0FF041C049F042C0A9
:101F02004AF043C04BF044C04CF04C344C324B329C
:101F12004A32493249C041F04AC042F04BC043F014
:101F22004CC044F05328D8B499EF0FF09BEF0FF058
:101F3200A2EF0FF0532AA2EF0FF0A2EF0FF0A2EFE1
:101F42000FF05328D8B4A8EF0FF0AAEF0FF0B4EFB8
:101F52000FF05350D8A4B0EF0FF0B2EF0FF0CAEF6A
:101F62000FF0B4EF0FF0000E416E000E426E000E45
:101F7200436E000E446E5350D8A4C2EF0FF0C4EF6C
:101F82000FF0CAEF0FF0000E516ECAEF0FF0CAEF5A
:101F92000FF053A0CFEF0FF0D1EF0FF0D4EF0FF00F
:101FA200438ED7EF0FF0439ED7EF0FF0D890533008
:101FB200446E51AEDFEF0FF0E1EF0FF0E4EF0FF000
:101FC200448EE4EF0FF041C041F042C042F043C002
:101FD20043F044C044F0EEEF0FF01200025007E16C
:101FE200320E015CD8B0F8EF0FF0FAEF0FF000EF0D
:101FF20010F0000E046E050E036E22EF12F0025076
:1020020009E1320E015CD8A009EF10F00BEF10F0DD
:102012001CEF10F0025007E1640E015CD8B014EF1F
:1020220010F016EF10F01CEF10F0000E046E0A0E06
:10203200036E22EF12F0025009E1640E015CD8A097
:1020420025EF10F027EF10F038EF10F0025007E103
:10205200960E015CD8B030EF10F032EF10F038EF8E
:1020620010F0000E046E0F0E036E22EF12F00250FB
:1020720009E1960E015CD8A041EF10F043EF10F099
:1020820054EF10F0025007E1C80E015CD8B04CEFDB
:1020920010F04EEF10F054EF10F0000E046E140E1C
:1020A200036E22EF12F0025009E1C80E015CD8A0C3
:1020B2005DEF10F05FEF10F070EF10F0025007E1EB
:1020C200FA0E015CD8B068EF10F06AEF10F070EF12
:1020D20010F0000E046E190E036E22EF12F0025081
:1020E20009E1FA0E015CD8A079EF10F07BEF10F055
:1020F2008CEF10F02C0E015C010E0258D8B084EF68
:1021020010F086EF10F08CEF10F0000E046E1E0E31
:10211200036E22EF12F02C0E015C010E0258D8A0C1
:1021220095EF10F097EF10F0A8EF10F05E0E015C43
:10213200010E0258D8B0A0EF10F0A2EF10F0A8EFF5
:1021420010F0000E046E230E036E22EF12F05E0EEC
:10215200015C010E0258D8A0B1EF10F0B3EF10F0FD
:10216200C4EF10F0900E015C010E0258D8B0BCEF23
:1021720010F0BEEF10F0C4EF10F0000E046E280E47
:10218200036E22EF12F0900E015C010E0258D8A0ED
:10219200CDEF10F0CFEF10F0E0EF10F0C20E015CC7
:1021A200010E0258D8B0D8EF10F0DAEF10F0E0EFDD
:1021B20010F0000E046E2D0E036E22EF12F0C20E0E
:1021C200015C010E0258D8A0E9EF10F0EBEF10F01D
:1021D200FCEF10F0F40E015C010E0258D8B0F4EFDF
:1021E20010F0F6EF10F0FCEF10F0000E046E320E5D
:1021F200036E22EF12F0F40E015C010E0258D8A019
:1022020005EF11F007EF11F018EF11F0260E015C47
:10221200020E0258D8B010EF11F012EF11F018EFC1
:1022220011F0000E046E370E036E22EF12F0260E2E
:10223200015C020E0258D8A021EF11F023EF11F039
:1022420034EF11F0580E015C020E0258D8B02CEF98
:1022520011F02EEF11F034EF11F0000E046E3C0E6F
:10226200036E22EF12F0580E015C020E0258D8A043
:102272003DEF11F03FEF11F050EF11F08A0E015CCB
:10228200020E0258D8B048EF11F04AEF11F050EFA9
:1022920011F0000E046E410E036E22EF12F08A0E50
:1022A200015C020E0258D8A059EF11F05BEF11F059
:1022B2006CEF11F0BC0E015C020E0258D8B064EF54
:1022C20011F066EF11F06CEF11F0000E046E460E85
:1022D200036E22EF12F0BC0E015C020E0258D8A06F
:1022E20075EF11F077EF11F088EF11F0EE0E015C4F
:1022F200020E0258D8B080EF11F082EF11F088EF91
:1023020011F0000E046E4B0E036E22EF12F0EE0E71
:10231200015C020E0258D8A091EF11F093EF11F078
:10232200A4EF11F0200E015C030E0258D8B09CEF0E
:1023320011F09EEF11F0A4EF11F0000E046E500E9A
:10234200036E22EF12F0200E015C030E0258D8A099
:10235200ADEF11F0AFEF11F0C0EF11F0520E015CD2
:10236200030E0258D8B0B8EF11F0BAEF11F0C0EF77
:1023720011F0000E046E550E036E22EF12F0520E93
:10238200015C030E0258D8A0C9EF11F0CBEF11F097
:10239200DCEF11F0840E015C030E0258D8B0D4EFCA
:1023A20011F0D6EF11F0DCEF11F0000E046E5A0EB0
:1023B200036E22EF12F0840E015C030E0258D8A0C5
:1023C200E5EF11F0E7EF11F0F8EF11F0B60E015C56
:1023D200030E0258D8B0F0EF11F0F2EF11F0F8EF5F
:1023E20011F0000E046E5F0E036E22EF12F0000E6B
:1023F200046E640E036E22EF12F022EF12F022EF4F
:1024020012F022EF12F022EF12F022EF12F022EF7E
:1024120012F022EF12F022EF12F022EF12F022EF6E
:1024220012F022EF12F022EF12F022EF12F022EF5E
:1024320012F022EF12F022EF12F022EF12F022EF4E
:1024420012F003C001F004C002F028EF12F01200F3
:102452001250800B1B6E12501224216E11AE34EFFB
:1024620012F036EF12F039EF12F0218039EF12F04C
:102472002150D8B43FEF12F041EF12F056EF12F0B4
:102482002128D8A447EF12F049EF12F053EF12F0CF
:10249200000E0F6E000E106E000E116E000E126E08
:1024A20053EF12F0118E60EF12F0000E0F6E000E5D
:1024B200106E000E116E000E126E60EF12F01650CA
:1024C200800B1B1A16501624206E15AE6BEF12F0FD
:1024D2006DEF12F070EF12F0208070EF12F02050CA
:1024E200D8B476EF12F078EF12F08DEF12F02028C8
:1024F200D8A47EEF12F080EF12F08AEF12F0000EF5
:10250200136E000E146E000E156E000E166E8AEF1C
:1025120012F0158E95EF12F0000E136E000E146E6F
:10252200000E156E000E166E2050D8B49BEF12F0FE
:102532009DEF12F0A7EF12F02150D8A4A3EF12F0F2
:10254200A5EF12F0B3EF12F0A7EF12F0000E0F6E2C
:10255200000E106E000E116E000E126E5FEF14F080
:102562005FEF14F015500F02F3CF26F0F4CF27F0EF
:1025720026501C6E1D6A1E6A1F6A2750226E236A2D
:10258200246A256A14501002F3CF26F0F4CF27F004
:1025920026501C26000E1D221E221F2227502226F4
:1025A200000E23222422252213501102F3CF26F0FB
:1025B200F4CF27F026501C26000E1D221E221F22B9
:1025C20027502226000E2322242225221EC01FF07D
:1025D2001DC01EF01CC01DF01C6A13501002F3CF68
:1025E20026F0F4CF27F026501C2627501D22000E7D
:1025F2001E22000E1F2214500F02F3CF26F0F4CF3A
:1026020027F026501C2627501D22000E1E22000EE7
:102612001F221EC01FF01DC01EF01CC01DF01C6A30
:1026220013500F02F3CF26F0F4CF27F026501C26CA
:1026320027501D22000E1E22000E1F2215501002CE
:10264200F3CF26F0F4CF27F026502226275023225C
:10265200000E2422000E252214501102F3CF26F080
:10266200F4CF27F02650222627502322000E2422C0
:10267200000E252215501102F3CF26F0F4CF27F0D9
:102682002650176E2750186E196A1A6A19C01AF066
:1026920018C019F017C018F0176A175022261850E0
:1026A2002322195024221A5025221CC017F01DC0C3
:1026B20018F01EC019F01FC01AF0190E66EF13F0C1
:1026C200D8901A32193218321732E82E61EF13F00D
:1026D2001750222618502322195024221A5025223C
:1026E2001EC01FF01DC01EF01CC01DF01C6A205031
:1026F20021C017F0186A1726000E1822820E17241E
:10270200266EFF0E1820276E9EEF13F0D890223609
:102712002336243625361FAE91EF13F093EF13F0D4
:1027220094EF13F02280D8901C361D361E361F36C9
:102732002606D8A027069EEF13F024AEA3EF13F0CF
:10274200A5EF13F087EF13F0A7EF13F0000E206E42
:102752001FAEAEEF13F0B0EF13F0D8EF13F0FF0E91
:102762001C14176EFF0E1D14186EFF0E1E14196E28
:102772007F0E1F141A6E1750181019101A10D8B4A1
:10278200C5EF13F0C7EF13F0CBEF13F0010E206E7D
:10279200D8EF13F022A0D0EF13F0D2EF13F0D8EF5E
:1027A20013F0010E206ED8EF13F0D8EF13F0205083
:1027B200D8B4DEEF13F0E0EF13F008EF14F0010EDF
:1027C2002226000E23222422252225A0EBEF13F03D
:1027D200EDEF13F008EF14F022C017F023C018F049
:1027E20024C019F025C01AF01A341A3219321832DC
:1027F200173217C022F018C023F019C024F01AC0F3
:1028020025F0264A272A08EF14F008EF14F027BE15
:1028120013EF14F0275008E12628D8A013EF14F084
:1028220015EF14F01FEF14F0000E226E000E236E4F
:10283200800E246E7F0E256E53EF14F027BE2CEF10
:1028420014F0275006E12604D8B02AEF14F02CEF3A
:1028520014F038EF14F0000E226E000E236E000EFC
:10286200246E000E256E000E1B6E53EF14F026C070
:1028720021F0FF0E2216FF0E23167F0E2416000EE5
:10288200251621A047EF14F049EF14F04CEF14F095
:10289200248E4CEF14F0D8902130256E53EF14F0B3
:1028A20053EF14F01B50251222C00FF023C010F07A
:1028B20024C011F025C012F05FEF14F012002B506B
:1028C200800B386E2B502B243F6E2AAE6BEF14F028
:1028D2006DEF14F070EF14F03F8070EF14F03F5082
:1028E200D8B476EF14F078EF14F08FEF14F03F289D
:1028F200D8A47EEF14F080EF14F08AEF14F0000EEB
:10290200286E000E296E000E2A6E000E2B6E8AEFC4
:1029120014F02A8E000E2B6E99EF14F0000E286E22
:10292200000E296E000E2A6E000E2B6E99EF14F027
:102932002F50800B381A2F502F24406E2EAEA4EF4A
:1029420014F0A6EF14F0A9EF14F04080A9EF14F0F0
:102952004050D8B4AFEF14F0B1EF14F0C8EF14F058
:102962004028D8A4B7EF14F0B9EF14F0C3EF14F075
:10297200000E2C6E000E2D6E000E2E6E000E2F6EAF
:10298200C3EF14F02E8E000E2F6ED2EF14F0000E55
:102992002C6E000E2D6E000E2E6E000E2F6ED2EFDC
:1029A20014F02C502D102E102F10D8A4DBEF14F0A1
:1029B200DDEF14F0F7EF14F0000E286E000E296E12
:1029C200000E2A6E000E2B6E800E2A127F0E2B1224
:1029D20038502B1228C028F029C029F02AC02AF02A
:1029E2002BC02BF06FEF16F06FEF16F03F50D8A40C
:1029F200FDEF14F0FFEF14F013EF15F0000E286E48
:102A0200000E296E000E2A6E000E2B6E28C028F0D2
:102A120029C029F02AC02AF02BC02BF06FEF16F044
:102A22006FEF16F04050306E316A301E311E304A60
:102A3200312A3F50326E336A3050322631503322BF
:102A42007F0E3224396E000E33203A6E28C034F0E5
:102A520029C035F02AC036F02BC037F0000E286EA0
:102A6200000E296E000E2A6E000E2B6E000E3B6EBB
:102A7200000E3C6E000E3D6E000E3E6E000E406E6D
:102A82007FEF15F04050D8B449EF15F04BEF15F039
:102A920064EF15F0D8903436353636363736D8905E
:102AA200283629362A362B363EAE5AEF15F05CEF21
:102AB20015F05DEF15F02880D8903B363C363D3658
:102AC2003E3664EF15F02C50345C2D5035582E50A4
:102AD20036582F503758D8A071EF15F073EF15F014
:102AE2007EEF15F03E8C2C50345E2D50355A2E5010
:102AF200365A2F50375A7EEF15F0402A190E40648D
:102B020085EF15F087EF15F043EF15F089EF15F01B
:102B12003450351036103710D8B492EF15F094EFC8
:102B220015F0B0EF15F03B80B0EF15F0B0EF15F0F7
:102B3200D890283629362A362B363EAEA3EF15F02A
:102B4200A5EF15F0A6EF15F02880D8903B363C365D
:102B52003D363E363906D8A03A06B0EF15F02AAE19
:102B6200B5EF15F0B7EF15F099EF15F0B9EF15F0D5
:102B7200000E406E3EAEC0EF15F0C2EF15F0EAEF68
:102B820015F0FF0E3B14306EFF0E3C14316EFF0E3B
:102B92003D14326E7F0E3E14336E305031103210BF
:102BA2003310D8B4D7EF15F0D9EF15F0DDEF15F0EB
:102BB200010E406EEAEF15F028A0E2EF15F0E4EF07
:102BC20015F0EAEF15F0010E406EEAEF15F0EAEFAC
:102BD20015F04050D8B4F0EF15F0F2EF15F01AEFFF
:102BE20016F0010E2826000E29222A222B222BA0C3
:102BF200FDEF15F0FFEF15F01AEF16F028C030F0D8
:102C020029C031F02AC032F02BC033F033343332D2
:102C120032323132303230C028F031C029F032C085
:102C22002AF033C02BF0394A3A2A1AEF16F01AEF7B
:102C320016F03ABE25EF16F03A5008E13928D8A02E
:102C420025EF16F027EF16F034EF16F0000E3A6E6D
:102C52003968000E286E000E296E000E2A6E000ED4
:102C62002B6E34EF16F03ABE41EF16F03A5006E101
:102C72003904D8B03FEF16F041EF16F051EF16F0DD
:102C8200000E3A6E000E396E000E286E000E296E8E
:102C9200000E2A6E000E2B6E000E386E51EF16F0EB
:102CA20039C03FF03FA058EF16F05AEF16F05DEF33
:102CB20016F02A8E60EF16F02A9E60EF16F0D8907A
:102CC2003F302B6E38502B1228C028F029C029F033
:102CD2002AC02AF02BC02BF06FEF16F01200EEC0C4
:102CE2006AF0EFC06BF0F0C06CF0F1C06DF055C04F
:102CF2006AF056C06BF057C06CF058C06DF06AC0F5
:102D020059F06BC05AF06CC05BF06DC05CF0180EED
:102D120090EF16F0D8905C325B325A325932E82E7C
:102D22008BEF16F059500001646F656B65BFA3EF1E
:102D320016F0655109E1960E645DD8A0A3EF16F076
:102D4200A5EF16F0AFEF16F055C055F056C056F08D
:102D520057C057F058C058F078EF18F06AC059F0D1
:102D62006BC05AF06CC05BF06DC05CF0200EBFEF20
:102D720016F0D8905C325B325A325932E82EBAEFF2
:102D820016F059505A105B105C10D8B4CBEF16F005
:102D9200CDEF16F0E1EF16F055C001F056C002F08B
:102DA20057C003F058C004F01EEC2BF001C055F0E0
:102DB20002C056F003C057F004C058F0E1EF16F01D
:102DC200000165BFF0EF16F0655107E17E0E645D0C
:102DD200D8B0EEEF16F0F0EF16F00EEF17F06AC073
:102DE2000FF06BC010F06CC011F06DC012F0000E4D
:102DF200136E000E146E000E156E000E166E29EC88
:102E020012F00FC055F010C056F011C057F012C0AA
:102E120058F078EF18F078EF18F0010EF66E080E01
:102E2200F76E0900F5CF45F00900F5CF46F009002D
:102E3200F5CF47F00A00F5CF48F055C041F056C033
:102E420042F057C043F058C044F02DEC0DF041C0A1
:102E520066F042C067F043C068F044C069F0010EFA
:102E6200F66E080EF76E0900F5CF01F00900F5CFF6
:102E720002F00900F5CF03F00A00F5CF04F01EECD2
:102E82002BF001C045F002C046F003C047F004C079
:102E920048F066C041F067C042F068C043F069C0C4
:102EA20044F02DEC0DF041C060F042C061F043C02F
:102EB20062F044C063F060C041F061C042F062C0A1
:102EC20043F063C044F055C001F056C002F057C051
:102ED20003F058C004F01EEC2BF001C045F002C014
:102EE20046F003C047F004C048F02DEC0DF041C09D
:102EF2006EF042C06FF043C070F044C071F0000E3B
:102F0200016E000E026E000E036E3F0E046E6EC066
:102F120005F06FC006F070C007F071C008F021EC38
:102F220021F0D8B097EF17F099EF17F0CFEF17F025
:102F320055C045F056C046F057C047F058C048F05B
:102F42006EC041F06FC042F070C043F071C044F0F7
:102F52002DEC0DF041C066F042C067F043C068F04E
:102F620044C069F066C041F067C042F068C043F0F7
:102F720069C044F0000E456E000E466E800E476E2C
:102F8200BF0E486E2DEC0DF041C06EF042C06FF0E6
:102F920043C070F044C071F03CEF18F0000E016EB7
:102FA200000E026E000E036EBF0E046E6EC005F0C0
:102FB2006FC006F070C007F071C008F021EC21F07C
:102FC200D8A0E6EF17F0E8EF17F01EEF18F055C0A3
:102FD20045F056C046F057C047F058C048F06EC0A2
:102FE20041F06FC042F070C043F071C044F02DEC6C
:102FF2000DF041C066F042C067F043C068F044C0C3
:1030020069F066C041F067C042F068C043F069C031
:1030120044F0000E456E000E466E800E476E3F0E67
:10302200486E2DEC0DF041C06EF042C06FF043C00F
:1030320070F044C071F03CEF18F06EC041F06FC008
:1030420042F070C043F071C044F055C045F056C024
:1030520046F057C047F058C048F02DEC0DF041C083
:103062006EF042C06FF043C070F044C071F03CEFAC
:1030720018F03CEF18F06AC059F06BC05AF06CC0FF
:103082005BF06DC05CF0200E4CEF18F0D8905C3213
:103092005B325A325932E82E47EF18F059505A1023
:1030A2005B105C10D8B458EF18F05AEF18F06EEFBE
:1030B20018F06EC001F06FC002F070C003F071C072
:1030C20004F01EEC2BF001C06EF002C06FF003C0E2
:1030D20070F004C071F06EEF18F06EC055F06FC062
:1030E20056F070C057F071C058F078EF18F0120027
:1030F200E80E0001886F010E896F000E8A6F000EC4
:103102008B6F7551741109E1400E725D1F0E735978
:10311200D8B08EEF18F090EF18F09AEF18F0000E7A
:103122007B6F020E7A6F000E7D6F100E7C6FA4EF24
:1031320018F0000E7B6F000E7A6F000E7D6F010E8D
:103142007C6FA4EF18F07251885D735189597451E4
:103152008A5975518B59D8B0B1EF18F0B3EF18F006
:10316200C1EF18F0000E836F070E826F000E7E6FA4
:10317200120E7F6F7A0E806F000E816FA7EF19F02B
:10318200D8908B338A33893388337251885D735177
:10319200895974518A5975518B59D8B0D3EF18F0A7
:1031A200D5EF18F0E3EF18F0000E836F060E826F72
:1031B200000E7E6F090E7F6F3D0E806F000E816FD5
:1031C200A7EF19F0D8908B338A3389338833725141
:1031D200885D7351895974518A5975518B59D8B088
:1031E200F5EF18F0F7EF18F005EF19F0000E836F06
:1031F200050E826F800E7E6F840E7F6F1E0E806FB3
:10320200000E816FA7EF19F0D8908B338A33893380
:1032120088337251885D7351895974518A59755135
:103222008B59D8B017EF19F019EF19F027EF19F0F1
:10323200000E836F040E826F400E7E6F420E7F6F10
:103242000F0E806F000E816FA7EF19F0D8908B33AD
:103252008A33893388337251885D73518959745125
:103262008A5975518B59D8B039EF19F03BEF19F0E3
:1032720049EF19F0000E836F030E826F200E7E6FEE
:10328200A10E7F6F070E806F000E816FA7EF19F0FE
:10329200D8908B338A33893388337251885D735166
:1032A200895974518A5975518B59D8B05BEF19F00D
:1032B2005DEF19F06BEF19F0000E836F020E826F53
:1032C200900E7E6FD00E7F6F030E806F000E816FA7
:1032D200A7EF19F0D8908B338A3389338833725130
:1032E200885D7351895974518A5975518B59D8B077
:1032F2007DEF19F07FEF19F08DEF19F0000E836F5B
:10330200010E826F480E7E6FE80E7F6F010E806F96
:10331200000E816FA7EF19F0000E836F000E826F0F
:10332200180E7E6F790E7F6F000E806F000E816F18
:10333200A7EF19F0A7EF19F0A7EF19F0A7EF19F00F
:10334200A7EF19F0A7EF19F0A7EF19F0000E136E0F
:10335200000E146E800E156E400E166E7CC001F0CB
:103362007DC002F0000E02BEFF0E036E046E010E5F
:10337200F0EC1CF001C00FF002C010F003C011F01D
:1033820004C012F029EC12F00FC076F010C077F0F2
:1033920011C078F012C079F072C001F073C002F06F
:1033A20074C003F075C004F0000EF0EC1CF001C014
:1033B20013F002C014F003C015F004C016F076C07A
:1033C2000FF077C010F078C011F079C012F029EC3C
:1033D20012F00FC02CF010C02DF011C02EF012C050
:1033E2002FF07EC001F07FC002F080C003F081C0E8
:1033F20004F0000EF0EC1CF001C028F002C029F02D
:1034020003C02AF004C02BF060EC14F028C041F095
:1034120029C042F02AC043F02BC044F0000E456E92
:10342200000E466E800E476EBF0E486E2DEC0DF0FC
:1034320041C084F042C085F043C086F044C087F0AA
:1034420084C055F085C056F086C057F087C058F04A
:1034520070EC16F055C084F056C085F057C086F067
:1034620058C087F082C05FF0070E5F165F38F00B1E
:103472000209D36E84C055F085C056F086C057F05D
:1034820087C058F0D5EC21F05550CB6E7AC0CAFFF8
:10349200000ECC6ECA8484C055F085C056F086C03A
:1034A20057F087C058F0D5EC21F055C072F056C0E5
:1034B20073F05CEF1AF012001EC036F01FC037F036
:1034C20020C038F021C039F022C03AF023C03BF0CE
:1034D20024C03CF025C03DF03DBE72EF1AF075EFFE
:1034E2001AF0010E76EF1AF0000E346E356A34507F
:1034F2003510D8B47FEF1AF081EF1AF093EF1AF07B
:103502003D1E3C1E3B1E3A1E391E381E371E366CAF
:10351200000E3722382239223A223B223C223D2217
:1035220093EF1AF00001F7BF99EF1AF09BEF1AF030
:103532009EEF1AF0F8939EEF1AF0F7BFABEF1AF076
:10354200F75106E1F605D8B0A9EF1AF0ABEF1AF081
:10355200B1EF1AF0000E316E010E306EB5EF1AF0B7
:10356200F6C030F0F7C031F0F4C032F0F5C033F0FD
:1035720034503510D8A4C0EF1AF0C2EF1AF0CBEFD6
:103582001AF0F8A5C7EF1AF0C9EF1AF0D0EF1AF047
:10359200CBEF1AF03206D8A03306D0EF1AF0000EA5
:1035A2003F6E1F0E3E6E000E3E24D96E010E3F206E
:1035B200DA6E000EDF6E5CEF1BF03E06D8A03F060F
:1035C200000E3E24D96E010E3F20DA6E36C001F0A5
:1035D20037C002F038C003F039C004F03AC005F039
:1035E2003BC006F03CC007F03DC008F00A0E096E71
:1035F200000E0A6E000E0B6E000E0C6E000E0D6EAB
:10360200000E0E6E000E0F6E000E106E9CEC1FF080
:1036120001C026F002C027F003C028F004C029F040
:1036220005C02AF006C02BF007C02CF008C02DF010
:1036320026C013F028C014F0DBEC2AF01350300F30
:10364200DF6E3006D8A031063206D8A0330636C067
:1036520001F037C002F038C003F039C004F03AC0BC
:1036620005F03BC006F03CC007F03DC008F00A0E72
:10367200096E000E0A6E000E0B6E000E0C6E000E2E
:103682000D6E000E0E6E000E0F6E000E106EC4EC6C
:103692001EF001C036F002C037F003C038F004C09B
:1036A20039F005C03AF006C03BF007C03CF008C054
:1036B2003DF05CEF1BF03FBE67EF1BF03F5008E1AF
:1036C2003E04D8A067EF1BF069EF1BF0A0EF1BF0E0
:1036D20036503710381039103A103B103C103D105C
:1036E200D8A476EF1BF078EF1BF0DEEF1AF031BEB4
:1036F20085EF1BF0315006E13004D8B083EF1BF0A8
:1037020085EF1BF0DEEF1AF033BE90EF1BF0335063
:1037120008E13204D8A090EF1BF092EF1BF0A0EF6B
:103722001BF00001F8B398EF1BF09AEF1BF0DEEFED
:103732001AF0A0EF1BF0A0EF1BF0A0EF1BF034502B
:103742003510D8A4A7EF1BF0A9EF1BF0B3EF1BF0C5
:103752000001F8A5AFEF1BF0B1EF1BF0D5EF1BF0A6
:10376200B3EF1BF03E06D8A03F0634503510D8A464
:10377200BDEF1BF0BFEF1BF0C5EF1BF0000E2F6E6D
:103782002B0E2E6ECBEF1BF0000E2F6E2D0E2E6E1B
:10379200CBEF1BF0000E3E24D96E010E3F20DA6EF5
:1037A2002EC0DFFFD5EF1BF01CC011F01DC012F0C0
:1037B200000E3E24136E010E3F20146E32C015F02F
:1037C20033C016F0FAEC24F011C01CF012C01DF048
:1037D200EBEF1BF01200000E166E000E156E000EBF
:1037E2000F6E000E0E6EFAEF1BF0084A092AFAEF6E
:1037F2001BF0010E146E08C0D9FF09C0DAFF200EBB
:10380200DE18D8B407EF1CF009EF1CF027EF1CF00C
:10381200F70E0A6EFF0E0B6E08C0D9FF09C0DAFF61
:10382200DF500C6E0D6A0A500C260B500D220D5003
:1038320009E1050E0C5CD8A021EF1CF023EF1CF06F
:1038420027EF1CF0000E146E27EF1CF014C010F0CE
:10385200116A3DEF1CF008C0D9FF09C0DAFFDF5042
:103862000A6E0A50016E026AC5EC29F001C010F01E
:1038720002C011F03DEF1CF010501110D8A444EF1B
:103882001CF046EF1CF0F6EF1BF054EF1CF054EF67
:103892001CF0000E0F6E010E0E6E50EF1CF0084A67
:1038A200092A96EF1CF008C0D9FF09C0DAFFDF50E1
:1038B2000A6E0B6A0B50000AD8B462EF1CF096EF46
:1038C2001CF00A502B0AD8B450EF1CF0060AD8B4E8
:1038D2004AEF1CF096EF1CF096EF1CF0D00E0A6E29
:1038E200FF0E0B6E08C0D9FF09C0DAFFDF500C6E65
:1038F2000D6A0A500C260B500D220C1E0D1E0C4A8E
:103902000D2A15C001F016C002F0000E046E0A0E58
:10391200036E9EEC2BF00C500124156E0D5002200C
:10392200166E084A092A96EF1CF0D00E0A6EFF0E98
:103932000B6E08C0D9FF09C0DAFFDF500C6E0D6AAA
:103942000A500C260B500D220D500AE10A0E0C5C97
:10395200D8A0AEEF1CF0B1EF1CF0010EB2EF1CF0DC
:10396200000E126E136AC7EF1CF008C0D9FF09C01F
:10397200DAFFDF500A6E0A50016E026A3EEC2BF04B
:1039820001C012F002C013F0C7EF1CF01250131066
:10399200D8A4CEEF1CF0D0EF1CF06FEF1CF0D2EFEA
:1039A2001CF00E500F10D8A4D9EF1CF0DBEF1CF066
:1039B200E9EF1CF015C00AF016C00BF00A1E0B1E30
:1039C2000A4A0B2A0AC008F00BC009F0EFEF1CF0FC
:1039D20015C008F016C009F0EFEF1CF01200096ED6
:1039E2000950D8B4F7EF1CF0F9EF1CF01BEF1DF0F3
:1039F20004BE00EF1DF0FEEF1CF01BEF1DF001C036
:103A020005F002C006F003C007F004C008F0051E6E
:103A1200061E071E081E052A000E0622072208227D
:103A220005C00BF006C00CF007C00DF008C00EF088
:103A320025EF1DF001C00BF002C00CF003C00DF029
:103A420004C00EF025EF1DF0015002100310041007
:103A5200D8A42EEF1DF030EF1DF03CEF1DF0000E4C
:103A6200016E000E026E000E036E000E046EDDEF9C
:103A72001DF0DDEF1DF0960E0A6E48EF1DF00A2ACA
:103A8200D8900E320D320C320B3248EF1DF0000E80
:103A92000B14056E000E0C14066E000E0D14076E4C
:103AA200FE0E0E14086E0550061007100810D8A45A
:103AB2005DEF1DF05FEF1DF040EF1DF06FEF1DF0A9
:103AC2006FEF1DF00A2A010E0B26000E0C220D22AA
:103AD2000E22D8900E320D320C320B32000E0B1425
:103AE200056E000E0C14066E000E0D14076EFF0E0E
:103AF2000E14086E0550061007100810D8A484EFA3
:103B02001DF086EF1DF063EF1DF092EF1DF092EFB6
:103B12001DF00A06D8900B360C360D360E3692EF93
:103B22001DF00DBE97EF1DF099EF1DF0A3EF1DF0F4
:103B3200020E0A609FEF1DF0A1EF1DF08AEF1DF04B
:103B4200A3EF1DF00AB0A8EF1DF0AAEF1DF0ADEF34
:103B52001DF00D9EADEF1DF0D8900A320AC005F09F
:103B6200066A076A086A05C008F0076A066A056AF3
:103B720005500B1206500C1207500D1208500E126F
:103B82000950D8B4C7EF1DF0C9EF1DF0D3EF1DF0F7
:103B920004BED0EF1DF0CEEF1DF0D3EF1DF00E8E60
:103BA200D3EF1DF00BC001F00CC002F00DC003F00A
:103BB2000EC004F0DDEF1DF0120042C0D9FF43C079
:103BC200DAFFDECFF6FFDDCFF7FF0800F550250A5A
:103BD200D8A4EEEF1DF0F0EF1DF0A4EF1EF042C0EE
:103BE200D9FF43C0DAFFDE2A000EDD22000E0001FB
:103BF200F56F000EF46FF4C0F8F0F5C0F9F0F66955
:103C0200F76942C0D9FF43C0DAFFDECFF6FFDDCF4E
:103C1200F7FF0800F550640AD8B412EF1EF014EF53
:103C22001EF028EF1EF042C0D9FF43C0DAFFDECFFC
:103C3200F6FFDDCFF7FF0800F550690AD8A424EF9C
:103C42001EF026EF1EF06AEF1EF028EF1EF042C0B3
:103C5200D9FF43C0DAFFDE2A000EDD2244C0D9FFBD
:103C620045C0DAFFDFCF46F0020EDE26DFCF47F097
:103C7200000EDD2246C0D9FF47C0DAFFDECF48F092
:103C8200DDCF49F0000E49BEFF0E4A6E4B6E4C6E00
:103C92004D6E4E6E4F6E40C01CF041C01DF048C0CC
:103CA2001EF049C01FF04AC020F04BC021F04CC0AA
:103CB20022F04DC023F04EC024F04FC025F05DEC41
:103CC2001AF01CC040F01DC041F0C3EF1EF0C3EF5C
:103CD2001EF042C0D9FF43C0DAFFDECFF6FFDDCFD0
:103CE200F7FF0800F550250AD8A47AEF1EF07CEF02
:103CF2001EF095EF1EF042C0D9FF43C0DAFFDE2A64
:103D0200000EDD22000E026E250E016E40C003F091
:103D120041C004F08BEC24F0000E416E010E406EA7
:103D2200C3EF1EF0C3EF1EF042C0D9FF43C0DAFF5B
:103D3200DE2A000EDD22000E416E000E406EC3EF41
:103D42001EF0C3EF1EF042C0D9FF43C0DAFFDECF40
:103D5200F6FFDDCFF7FF0800F550016E026A40C0A2
:103D620003F041C004F08BEC24F042C0D9FF43C001
:103D7200DAFFDE2A000EDD22000E416E010E406ED9
:103D8200C3EF1EF01200000E126E10BECDEF1EF039
:103D9200CBEF1EF0E1EF1EF0101E0F1E0E1E0D1EC9
:103DA2000C1E0B1E0A1E096C000E0A220B220C228C
:103DB2000D220E220F221022010E126EE1EF1EF0D2
:103DC20008BEE8EF1EF0E6EF1EF0FCEF1EF0081E44
:103DD200071E061E051E041E031E021E016C000E97
:103DE2000222032204220522062207220822010EB1
:103DF200121AFCEF1EF020EE13F0070EDE6AE80640
:103E0200FDE209500A100B100C100D100E100F10CD
:103E12001010D8B40FEF1FF011EF1FF06FEF1FF06B
:103E2200010E116E21EF1FF0D89009360A360B36BB
:103E32000C360D360E360F361036112A21EF1FF0D2
:103E420010AE26EF1FF028EF1FF015EF1FF02CEF3A
:103E52001FF02CEF1FF0D890133614361536163695
:103E62001736183619361A360950015C0A500258AC
:103E72000B5003580C5004580D5005580E5006585C
:103E82000F50075810500858D8A04AEF1FF04CEFB7
:103E92001FF05FEF1FF00950015E0A50025A0B50EB
:103EA200035A0C50045A0D50055A0E50065A0F5020
:103EB200075A1050085A13805FEF1FF0D890103243
:103EC2000F320E320D320C320B320A320932112EFF
:103ED2002CEF1FF06FEF1FF06FEF1FF01250D8B4EE
:103EE20075EF1FF077EF1FF089EF1FF01A1E191EF2
:103EF200181E171E161E151E141E136C000E1422F9
:103F0200152216221722182219221A2289EF1FF0CF
:103F120013C001F014C002F015C003F016C004F083
:103F220017C005F018C006F019C007F01AC008F053
:103F32009BEF1FF01200000E126E08BEA5EF1FF0DD
:103F4200A3EF1FF0B9EF1FF0081E071E061E051E85
:103F5200041E031E021E016C000E02220322042212
:103F62000522062207220822010E126EB9EF1FF067
:103F720010BEC0EF1FF0BEEF1FF0D2EF1FF0101EF9
:103F82000F1E0E1E0D1E0C1E0B1E0A1E096C000EAD
:103F92000A220B220C220D220E220F221022D2EF15
:103FA2001FF009500A100B100C100D100E100F10FC
:103FB2001010D8B4DFEF1FF0E1EF1FF035EF20F063
:103FC200010E116EF1EF1FF0D89009360A360B364A
:103FD2000C360D360E360F361036112AF1EF1FF061
:103FE20010AEF6EF1FF0F8EF1FF0E5EF1FF0FCEF59
:103FF2001FF0FCEF1FF00950015C0A5002580B50F1
:1040020003580C5004580D5005580E5006580F50C6
:10401200075810500858D8A011EF20F013EF20F0E5
:1040220025EF20F00950015E0A50025A0B50035A44
:104032000C50045A0D50055A0E50065A0F50075A8A
:104042001050085A25EF20F0D89010320F320E325D
:104052000D320C320B320A320932112EFCEF1FF0F4
:1040620035EF20F035EF20F01250D8B43BEF20F0BE
:104072003DEF20F04FEF20F0081E071E061E051E22
:10408200041E031E021E016C000E022203220422E1
:1040920005220622072208224FEF20F001C001F07C
:1040A20002C002F003C003F004C004F005C005F032
:1040B20006C006F007C007F008C008F061EF20F064
:1040C2001200CAEC2BF0320E0001726F000E736FF9
:1040D200000E746F000E756F79EC18F072C0A2F0CA
:1040E20073C0A3F0000E0001606F000E616F400EFE
:1040F200626F400E636FA2C064F0A3C065F01AEC59
:1041020023F084EF20F0720ED36E5CEC2BF0C3EC44
:104112002BF0010E0B6E710E0C6E080E0D6E010E61
:10412200B7EC2AF0070E026ED00E016E07EC28F0F3
:10413200F2EC29F007C09AF008C09BF0CEEC2BF00D
:104142009AC017F09BC018F035EC26F017C0A4F007
:1041520018C0A5F0A4C05EF0A5C05FF0F5EC26F093
:1041620069EC29F007C0A6F008C0A7F0CEEC2BF04E
:10417200A6C017F0A7C018F035EC26F017C09CF0C7
:1041820018C09DF09CC05EF09DC05FF09AEC23F0D9
:1041920097EC29F007C09EF008C09FF0CEEC2BF000
:1041A2009EC017F09FC018F035EC26F017C0A8F09B
:1041B20018C0A9F0A8C05EF0A9C05FF0CDEC25F050
:1041C2003BEC29F007C0A0F008C0A1F0CEEC2BF028
:1041D200A0C017F0A1C018F035EC26F017C0AAF065
:1041E20018C0ABF0AAC05EF0ABC05FF065EC25F082
:1041F200110EF66E080EF76E0900F5500001A65D6D
:104202000900F550A759D8B009EF21F00BEF21F0C2
:1042120084EF20F0AAC08CF0ABC08DF0A8C08EF065
:10422200A9C08FF0A4C090F0A5C091F011EC09F0E4
:1042320084EF20F084EF20F084EF20F000EF00F014
:10424200000E0114096E000E02140A6E800E031491
:104252000B6E7F0E04140C6E09500A100B100C101A
:10426200D8A436EF21F038EF21F042EF21F0000E12
:10427200016E000E026E000E036E000E046E42EF1F
:1042820021F0000E0514096E000E06140A6E800E4F
:1042920007140B6E7F0E08140C6E09500A100B10D7
:1042A2000C10D8A457EF21F059EF21F063EF21F061
:1042B200000E056E000E066E000E076E000E086EF2
:1042C20063EF21F004AE68EF21F06AEF21F089EF8D
:1042D20021F001C009F002C00AF003C00BF004C0D3
:1042E2000CF0091E0A1E0B1E0C1E092A000E0A22C1
:1042F2000B220C22000E0924016E000E0A20026E0F
:10430200000E0B20036E800E0C20046E89EF21F04C
:1043120008AE8EEF21F090EF21F0ADEF21F005C055
:1043220009F006C00AF007C00BF008C00CF0091E25
:104332000A1E0B1E0C1E092A000E0A220B220C2238
:10434200000E0924056E000E0A20066E000E0B20D8
:10435200076E800E0C20086E000E011A000E021A63
:10436200000E031A800E041A000E051A000E061A19
:10437200000E071A800E081A0550015C06500258FA
:104382000750035808500458D8B0CAEF21F0CCEFB8
:1043920021F0CFEF21F0D890D4EF21F0D880D4EFE4
:1043A20021F0D4EF21F01200573458345E6E5E5083
:1043B200D8A4DEEF21F0E0EF21F0ECEF21F0000EC7
:1043C200556E000E566E000E576E000E586E7DEF43
:1043D20022F07DEF22F055C059F056C05AF057C076
:1043E2005BF058C05CF0200EFCEF21F0D8905C32FC
:1043F2005B325A325932E82EF7EF21F059505D6E96
:10440200578EFF0E5516FF0E5616FF0E5716000E4C
:104412005816960E5E5E5EBE13EF22F011EF22F08A
:1044220037EF22F05E50800A970FD8B01BEF22F0D0
:104432001DEF22F02BEF22F0000E556E000E566E8D
:10444200000E576E000E586E7DEF22F07DEF22F0C7
:104452002BEF22F0D89058325732563255325E3E08
:104462002BEF22F061EF22F061EF22F01F0E5E646B
:104472003DEF22F03FEF22F055EF22F0000E556E95
:10448200000E566E000E576E000E586E7DEF22F033
:104492007DEF22F055EF22F0D8905536563657363A
:1044A20058365E0655EF22F05E50D8A45BEF22F03C
:1044B2005DEF22F04DEF22F061EF22F061EF22F08A
:1044C2005D50D8B467EF22F069EF22F073EF22F06B
:1044D200581E571E561E556C000E56225722582241
:1044E20073EF22F055C055F056C056F057C057F042
:1044F20058C058F07DEF22F0120020EECCF010EE02
:1045020070F00F0EDBCFE3FFE806FCE26AC001F0B9
:104512006BC002F06CC003F06DC004F0330E056E88
:10452200330E066EF30E076E400E086E98EC26F000
:10453200D8A09EEF22F0A0EF22F0ACEF22F0700E96
:10454200116E000E126EBA0E136E080E146E89EC06
:104552002BF0D1EF22F06AC001F06BC002F06CC008
:1045620003F06DC004F0000E056E000E066E400EE4
:10457200076E410E086E98EC26F0D8A0C3EF22F029
:10458200C5EF22F0D1EF22F0700E116E000E126E06
:10459200B60E136E080E146E89EC2BF0D1EF22F0DA
:1045A200700E116E000E126EAF0E136E080E146EA8
:1045B20089EC2BF0800E586E000E596EBD0E5A6EAD
:1045C200080E5B6E6EC001F06FC002F0030E046E47
:1045D200E80E036E15EC24F001C05CF002C05DF041
:1045E2000CEC29F0700E116E000E126E800E136E1E
:1045F200000E146E89EC2BF0700E116E000E126E0E
:104602007C0E136E080E146E89EC2BF0010E0B6EED
:10461200570E0C6E080E0D6E010EB7EC2AF0010E4D
:104622000B6E700E0C6E000E0D6E020EB7EC2AF0C1
:104632001200000E136E000E146E800E156E400EE8
:10464200166E000E456E000E466E800E476E3F0ED1
:10465200486E64C001F065C002F0000E02BEFF0E9B
:10466200036E046E010EF0EC1CF001C041F002C0BA
:1046720042F003C043F004C044F02DEC0DF041C001
:104682000FF042C010F043C011F044C012F029EC08
:1046920012F00FC068F010C069F011C06AF012C0C9
:1046A2006BF0000E2C6E000E2D6EC80E2E6E420E9A
:1046B2002F6E60C028F061C029F062C02AF063C08A
:1046C2002BF060EC14F028C013F029C014F02AC0BB
:1046D20015F02BC016F068C00FF069C010F06AC068
:1046E20011F06BC012F029EC12F00FC055F010C09F
:1046F20056F011C057F012C058F0D5EC21F055C059
:104702006CF056C06DF06CC066F06DC067F00001D1
:104712006735673366336735673366336651BE6E16
:104722006CC066F0030E66176639F00B0C09BD6E9D
:104732001200E8C07AF0E9C07BF0EAC07CF07A0EA1
:10474200586E000E596EBD0E5A6E080E5B6E5EC03C
:104752005CF05FC05DF00CEC29F020EEACF010EEE6
:104762006AF00F0EDBCFE3FFE806FCE26A0E116E81
:10477200000E126E7A0E136E000E146E89EC2BF080
:10478200010E0B6E6A0E0C6E000E0D6E010EB7EC72
:104792002AF02C0E5E5C010E5F58D8B0D3EF23F0E6
:1047A200D5EF23F0E0EF23F0010E0B6EA30E0C6E9B
:1047B200080E0D6E020EB7EC2AF00EEF24F02C0E4E
:1047C2005E5C010E5F58D8A0E9EF23F0EBEF23F017
:1047D20001EF24F0BC0E5E5C020E5F58D8B0F4EF1D
:1047E20023F0F6EF23F001EF24F0010E0B6E970E8B
:1047F2000C6E080E0D6E020EB7EC2AF00EEF24F0CE
:10480200010E0B6E1D0E0C6E080E0D6E020EB7EC35
:104812002AF00EEF24F00EEF24F0030E026EE80EE3
:10482200016E07EC28F01200000E066E04BE1EEFA9
:1048320024F01CEF24F026EF24F0036C041ED8B001
:10484200042A010E066E26EF24F002BE2DEF24F09C
:104852002BEF24F035EF24F0016C021ED8B0022AAF
:10486200010E061A35EF24F0000E086E000E076ED8
:1048720003500410D8B440EF24F042EF24F076EF56
:1048820024F0010E056E4CEF24F0D8900336043666
:10489200052A4CEF24F004AE51EF24F053EF24F03C
:1048A20046EF24F057EF24F057EF24F0D890073664
:1048B20008360350015C04500258D8A063EF24F07C
:1048C20065EF24F06CEF24F00350015E0450025AAD
:1048D20007806CEF24F0D89004320332052E57EF94
:1048E20024F076EF24F076EF24F00650D8B47CEF73
:1048F20024F07EEF24F084EF24F0076C081ED8B079
:10490200082A84EF24F007C001F008C002F08AEF01
:1049120024F0120003500410D8B492EF24F094EF64
:1049220024F09FEF24F003500410D8A49BEF24F04E
:104932009DEF24F0A4EF24F09FEF24F00150D2EC7D
:104942002BF0F9EF24F020EE04F00350D9260450A6
:10495200DA22DE50DE10D8B4B1EF24F0B3EF24F047
:10496200D0EF24F020EE04F00350D9260450DA22CE
:1049720010EE02F00350E1260450E222DE50E65C23
:10498200E650800A096EDE50800A0958D8B0CCEF92
:1049920024F0CEEF24F0F9EF24F0D0EF24F020EE53
:1049A20002F00350D9260450DA22DECF05F0DDCF23
:1049B20006F003C0D9FF04C0DAFFDECF07F0DDCF77
:1049C20008F005500724D96E06500820DA6E01C09F
:1049D200DFFF20EE02F00350D9260450DA22DE2A4D
:1049E200000EDD22F9EF24F0F9EF24F0F9EF24F0C4
:1049F20012000001F8A100EF25F002EF25F00EEF02
:104A020025F013C00AF014C00BF011C00CF012C054
:104A12000DF045EC2AF00EEF25F016BE13EF25F04F
:104A220015EF25F01BEF25F015C01AF016C01BF08C
:104A32001FEF25F0000E1B6E000E1A6E000E196E8F
:104A4200000E186E33EF25F0000E026E200E016E7E
:104A520011C003F012C004F08BEC24F0184A192A9A
:104A620033EF25F01A50185C1950800A176E1B504C
:104A7200800A1758D8A040EF25F042EF25F025EF25
:104A820025F00001F8B148EF25F04AEF25F056EF86
:104A920025F013C00AF014C00BF011C00CF012C0C4
:104AA2000DF045EC2AF056EF25F013C001F014C0CA
:104AB20002F01CEC2AF01A500124116E1B50022045
:104AC200126E64EF25F01200DFC07AF0E0C07BF0D6
:104AD200E1C07CF05EC001F05FC002F061EC04F066
:104AE20001C080F002C081F0DCC07DF0DDC07EF04C
:104AF200DEC07FF07D0E586E000E596EBD0E5A6EEE
:104B0200080E5B6E80C05CF081C05DF00CEC29F099
:104B120021EE20F010EE6AF00F0EDBCFE3FFE80685
:104B2200FCE26A0E116E000E126E7D0E136E000E06
:104B3200146E89EC2BF0010E0B6E6A0E0C6E000ED9
:104B42000D6E010EB7EC2AF0F40E5E5C010E5F589A
:104B5200D8B0AEEF25F0B0EF25F0BBEF25F0010E97
:104B62000B6E3B0E0C6E080E0D6E020EB7EC2AF0A9
:104B7200C6EF25F0010E0B6E490E0C6E080E0D6E7F
:104B8200020EB7EC2AF0C6EF25F0030E026EE80E15
:104B9200016E07EC28F01200E5C07AF0E6C07BF067
:104BA200E7C07CF05EC001F05FC002F0EFEC0FF0F6
:104BB20001C080F002C081F0E2C07DF0E3C07EF06F
:104BC200E4C07FF07D0E586E000E596EBD0E5A6E17
:104BD200080E5B6E80C05CF081C05DF00CEC29F0C9
:104BE20021EE30F010EE6AF00F0EDBCFE3FFE806A5
:104BF200FCE26A0E116E000E126E7D0E136E000E36
:104C0200146E89EC2BF0010E0B6E6A0E0C6E000E08
:104C12000D6E010EB7EC2AF0F40E5E5C010E5F58C9
:104C2200D8B016EF26F018EF26F023EF26F0010E8B
:104C32000B6E8B0E0C6E080E0D6E020EB7EC2AF088
:104C42002EEF26F0010E0B6E2C0E0C6E080E0D6E62
:104C5200020EB7EC2AF02EEF26F0030E026EE80EDB
:104C6200016E07EC28F01200030E046EE80E036ECC
:104C720017C001F018C002F04DEC27F001C008F097
:104C820002C009F0000E0B6E0A0E0A6E91EC27F0BC
:104C9200085030091B6E000E046E640E036E17C0BE
:104CA20001F018C002F04DEC27F001C008F002C07C
:104CB20009F0000E0B6E0A0E0A6E91EC27F00850F6
:104CC20030091C6E000E046E0A0E036E17C001F04E
:104CD20018C002F04DEC27F001C008F002C009F044
:104CE200000E0B6E0A0E0A6E91EC27F00850300986
:104CF2001D6E17C008F018C009F0000E0B6E0A0EE8
:104D02000A6E91EC27F0085030091E6E1B0E086ED9
:104D1200000E096EECEC1BF008C019F009C01AF085
:104D220019C017F01AC018F097EF26F01200000E03
:104D32000114096E000E02140A6E800E03140B6E2B
:104D42007F0E04140C6E09500A100B100C10D8A41C
:104D5200ADEF26F0AFEF26F0B9EF26F0000E016EB0
:104D6200000E026E000E036E000E046EB9EF26F006
:104D7200000E0514096E000E06140A6E800E07144A
:104D82000B6E7F0E08140C6E09500A100B100C10DB
:104D9200D8A4CEEF26F0D0EF26F0DAEF26F0000E00
:104DA200056E000E066E000E076E000E086EDAEF3C
:104DB20026F0055001180FE1065002180CE10750C9
:104DC200031809E108500418D8B4EAEF26F0ECEF12
:104DD20026F0EFEF26F0D890F4EF26F0D880F4EF2B
:104DE20026F0F4EF26F01200EBC07AF0ECC07BF074
:104DF200EDC07CF07A0E586E000E596EBD0E5A6EE2
:104E0200080E5B6E5EC05CF05FC05DF00CEC29F0DA
:104E120020EEBCF010EE6AF00F0EDBCFE3FFE806E7
:104E2200FCE26A0E116E000E126E7A0E136E000E06
:104E3200146E89EC2BF0010E0B6E6A0E0C6E000ED6
:104E42000D6E010EB7EC2AF02C0E5E5C010E5F585F
:104E5200D8B02EEF27F030EF27F03BEF27F0010E0E
:104E62000B6E7E0E0C6E080E0D6E020EB7EC2AF063
:104E720046EF27F0010E0B6E640E0C6E080E0D6EDF
:104E8200020EB7EC2AF046EF27F0030E026EE80E90
:104E9200016E07EC28F01200000E066E000E056E81
:104EA20003500410D8B458EF27F05AEF27F08CEFD4
:104EB20027F0010E076E64EF27F0D8900336043610
:104EC200072A64EF27F004AE69EF27F06BEF27F0B3
:104ED2005EEF27F06FEF27F06FEF27F0D8900536DF
:104EE20006360350015C04500258D8A07BEF27F02D
:104EF2007DEF27F084EF27F00350015E0450025A41
:104F0200058084EF27F0D89004320332072E6FEF2A
:104F120027F08CEF27F005C001F006C002F0120066
:104F22000A500B10D8B498EF27F09AEF27F0C8EF89
:104F320027F0010E0C6EA4EF27F0D8900A360B363C
:104F42000C2AA4EF27F00BAEA9EF27F0ABEF27F066
:104F52009EEF27F0AFEF27F0AFEF27F00A50085C83
:104F62000B500958D8A0B8EF27F0BAEF27F0C0EFDE
:104F720027F00A50085E0B50095AC0EF27F0D8906C
:104F82000B320A320C2EAFEF27F0C8EF27F008C021
:104F920008F009C009F01200000E046E000E036E44
:104FA200F9EF27F0000E066E000E056E065009E1BD
:104FB2000A0E055CD8A0E0EF27F0E2EF27F0E6EF5B
:104FC20027F0F5EF27F0F5EF27F0054A062A0650FD
:104FD20009E10A0E055CD8A0F1EF27F0F3EF27F004
:104FE200E6EF27F0F5EF27F0034A042AF9EF27F05E
:104FF2000150035C02500458D8A002EF28F004EFDD
:1050020028F0D3EF27F006EF28F01200000E046E0E
:10501200000E036E33EF28F0000E066E000E056ED2
:10502200065009E1510E055CD8A01AEF28F01CEFDA
:1050320028F020EF28F02FEF28F02FEF28F0054A74
:10504200062A065009E1510E055CD8A02BEF28F084
:105052002DEF28F020EF28F02FEF28F0034A042A42
:1050620033EF28F00350015C04500258D8B03CEFF3
:1050720028F03EEF28F00DEF28F040EF28F0120064
:1050820009C00DF00AC00EF007C00FF008C010F002
:105092004DEF28F04DEF28F00D500B6E0E500C6EB8
:1050A2000D4A0E2A0BC0F6FF0CC0F7FFF86A0FC0BC
:1050B200D9FF10C0DAFF0F4A102A070EF76403D097
:1050C2000800F55005D0F6CFE1FFF7CFE2FFE75039
:1050D200DF6EDF50D8A470EF28F072EF28F04DEFAA
:1050E20028F074EF28F0120052C056F053C057F067
:1050F200000E0001F36F000EF26F95EF28F050C022
:1051020040F051C041F0560E426E000E436E54C044
:1051120044F055C045F0DEEC1DF040500001F2278E
:105122004150F32395EF28F056C0F6FF57C0F7FF22
:105132000800F5500009D8A4A1EF28F0A3EF28F049
:1051420080EF28F0F2C050F0F3C051F01200C0EF2F
:1051520028F009C0F6FF0AC0F7FFF86A070EF764E5
:1051620003D00800F55005D0F6CFE1FFF7CFE2FFFC
:10517200E7506BEC2AF0094A0A2AC0EF28F009C06E
:10518200F6FF0AC0F7FFF86A070EF76403D00800BB
:10519200F55005D0F6CFE1FFF7CFE2FFE750000967
:1051A200D8A4D6EF28F0D8EF28F0AAEF28F0DAEF4B
:1051B20028F01200660EF66E570EF76E000EF86EAD
:1051C20001EE20F010EE20F00900F5CFEEFFE550E1
:1051D200E150FAE1FA0EF66E550EF76E000EF86E19
:1051E20000EEACF010EE42F00900F5CFEEFFE55014
:1051F200E150FAE101EE00F0200EEE6AE806FDE170
:1052020000EEEEF0110EEE6AE806FDE1000EF86E19
:10521200000162EF20F05C0E0001626F000E636F0E
:1052220058C064F059C065F0000E676F000E666FDB
:10523200000E696F000E686F640E506E000E516EA4
:105242005AC052F05BC053F0620E546E000E556E9F
:1052520075EC28F050C060F051C061F00001665159
:105262005824D96E67515920DA6E000EDF6E3AEF7C
:1052720029F01200C29AC298C286C284C28242EF48
:1052820029F0C2A247EF29F049EF29F042EF29F0B5
:10529200C2820B0E026EB80E016E07EC28F0C3CF6D
:1052A200FEF0C4CFFCF00001FD6B000EC36E000ED9
:1052B200C46EFC51FD6FFC6BFC51FE11FA6FFD5187
:1052C200FB6FFAC007F0FBC008F068EF29F012008C
:1052D200C29AC298C296C284C28270EF29F0C2A258
:1052E20075EF29F077EF29F070EF29F0C2820B0EEB
:1052F200026EB80E016E07EC28F0C3CFFEF0C4CFE9
:10530200FCF00001FD6B000EC36E000EC46EFC517A
:10531200FD6FFC6BFC51FE11FA6FFD51FB6FFAC081
:1053220007F0FBC008F096EF29F01200C29AC2986B
:10533200C286C294C2829EEF29F0C2A2A3EF29F0D4
:10534200A5EF29F09EEF29F0C2820B0E026EB80E75
:10535200016E07EC28F0C3CFFEF0C4CFFCF00001D1
:10536200FD6B000EC36E000EC46EFC51FD6FFC6B34
:10537200FC51FE11FA6FFD51FB6FFAC007F0FBC042
:1053820008F0C4EF29F01200010E076E200E01187A
:105392000210D8B4CFEF29F0D1EF29F0ECEF29F0C9
:1053A200F70E036EFF0E046E01C005F002C006F098
:1053B2000350052604500622065009E1050E055C3D
:1053C200D8A0E6EF29F0E8EF29F0ECEF29F0000E83
:1053D200076EECEF29F007C001F0026AF1EF29F045
:1053E2001200C29AC298C296C294C282F9EF29F000
:1053F200C2A2FEEF29F000EF2AF0F9EF29F0C282F3
:105402000B0E026EB80E016E07EC28F0C3CFFEF051
:10541200C4CFFCF00001FD6BFC51FD6FFC6BFC5135
:10542200FE11FA6FFD51FB6FFAC007F0FBC008F0E6
:105432001BEF2AF0120001C005F002C006F026EFB1
:105442002AF0014A022A26EF2AF001C0D9FF02C03F
:10545200DAFFDF50D8A430EF2AF032EF2AF022EF41
:105462002AF034EF2AF005C003F006C004F0031E50
:10547200041E034A042A01500324016E0250042030
:10548200026E44EF2AF01200000E106E000E0F6E34
:1054920058EF2AF00EC001F0026A0CC003F00DC0F2
:1054A20004F08BEC24F00F4A102A58EF2AF00F5028
:1054B2000A24D96E10500B20DA6EDF500E6E0E5099
:1054C200D8A466EF2AF068EF2AF04BEF2AF06AEFD1
:1054D2002AF01200086E08C007F0F00E07168A5074
:1054E2000F0B07108A6E8A808A8200F08A92000E61
:1054F200026E010E016E07EC28F008C007F0073AB1
:10550200F00E07168A500F0B07108A6E8A8200F07F
:105512008A92000E026E030E016E07EC28F0120052
:10552200086E08C007F0F00E07168A500F0B07101E
:105532008A6E8A908A8200F08A92000E026E010EB2
:10554200016E07EC28F008C007F0073AF00E0716C4
:105552008A500F0B07108A6E8A8200F08A92000E20
:10556200026E030E016E07EC28F012000E6E000EA2
:105572000F6E020E0E60C0EF2AF0C2EF2AF0CBEFE0
:105582002AF00B500F0B80090F6E0F5091EC2AF08E
:10559200D4EF2AF00B500F0BC0090F6E0F5091EC95
:1055A2002AF0D4EF2AF00CC009F00DC00AF0A8ECE2
:1055B20028F0120014BEE8EF2AF0145006E113049A
:1055C200D8B0E6EF2AF0E8EF2AF0F6EF2AF013C09F
:1055D20015F014C016F0151E161E154A162A15C00F
:1055E20013F016C014F0FCEF2AF013C013F014C02D
:1055F20014F0FCEF2AF01200536F696C20537461AF
:1056020074653A20000000004E696768744E446178
:10561200793A20000000000041673A0000000000D3
:1056220000000000000000003030303030303030F8
:105632003030303030303030303001500210031012
:105642000410D8B427EF2BF029EF2BF033EF2BF017
:10565200000E011A000E021A000E031A800E041A1E
:1056620033EF2BF001C001F002C002F003C003F0DF
:1056720004C004F03DEF2BF01200D00E036EFF0EBB
:10568200046E01C005F002C006F003500526045066
:10569200062206500AE10A0E055CD8A053EF2BF051
:1056A20056EF2BF0010E57EF2BF0000E016E026A3F
:1056B2005BEF2BF01200000E936E000E026E0F0EC7
:1056C200016E07EC28F0020E91EC2AF0280E91EC04
:1056D2002AF0010E91EC2AF00C0E91EC2AF0060E43
:1056E20091EC2AF012006EC060F06FC061F070C0E1
:1056F20062F071C063F072C064F073C065F01AECBE
:1057020023F074C001F075C002F0CDEC27F0120056
:1057120011C001F012C002F01CEC2AF00150112459
:10572200076E02501220086E13C009F014C00AF06E
:1057320041EC28F09DEF2BF0120001500302F3CF51
:1057420005F0F4CF06F001500402F3500626025091
:105752000302F350062605C001F006C002F0B2EFC4
:105762002BF0120054656D7020433A2000000000B7
:105772000000000048756D696469747920253A203B
:10578200000000009268C280090EC16EAD0EC06EAC
:10579200120094940C0EBD6E1200010E91EC2AF0D0
:0457A20012001200DF
:020000040020DA
:08000000FFFFFFFFFFFFFFFF00
:020000040030CA
:0E00000000091F1EFF0381FF0FC00FE00F401D
:00000001FF
