:020000040000FA
:04000000C0EF28F035
:10080000000000004B000040413333F34000004043
:10081000405E012C01F401F40110278813536F6925
:100820006C20697320736F616B656400496C20668E
:100830006169742068756D69646500496C20666142
:1008400069742066726F696400496C20666169741E
:1008500020636861756400202020204172726F73EC
:1008600061676500496C2066616974206A6F757202
:1008700000496C2066616974206E75697400496C6A
:1008800020666169742073656300536F696C206929
:10089000732077657400536F696C206973206472EC
:1008A00079002054696D653A0031383000393000E4
:1008B000256400730000025007E1190E015CD8B0F6
:1008C00064EF04F066EF04F06CEF04F0000E046EC9
:1008D000000E036E04EF09F0025009E1190E015CED
:1008E000D8A075EF04F077EF04F088EF04F0025021
:1008F00007E1320E015CD8B080EF04F082EF04F023
:1009000088EF04F0000E046E010E036E04EF09F090
:10091000025009E1320E015CD8A091EF04F093EF90
:1009200004F0A4EF04F0025007E14B0E015CD8B0D4
:100930009CEF04F09EEF04F0A4EF04F0000E046EB0
:10094000020E036E04EF09F0025009E14B0E015C48
:10095000D8A0ADEF04F0AFEF04F0C0EF04F0025008
:1009600007E1640E015CD8B0B8EF04F0BAEF04F010
:10097000C0EF04F0000E046E030E036E04EF09F0E6
:10098000025009E1640E015CD8A0C9EF04F0CBEF7E
:1009900004F0DCEF04F0025007E17D0E015CD8B0FA
:1009A000D4EF04F0D6EF04F0DCEF04F0000E046E98
:1009B000040E036E04EF09F0025009E17D0E015CA4
:1009C000D8A0E5EF04F0E7EF04F0F8EF04F00250F0
:1009D00007E1960E015CD8B0F0EF04F0F2EF04F0FE
:1009E000F8EF04F0000E046E050E036E04EF09F03C
:1009F000025009E1960E015CD8A001EF05F003EF6B
:100A000005F014EF05F0025007E1AF0E015CD8B01D
:100A10000CEF05F00EEF05F014EF05F0000E046E7C
:100A2000060E036E04EF09F0025009E1AF0E015CFF
:100A3000D8A01DEF05F01FEF05F030EF05F00250D4
:100A400007E1C80E015CD8B028EF05F02AEF05F0E9
:100A500030EF05F0000E046E070E036E04EF09F090
:100A6000025009E1C80E015CD8A039EF05F03BEF58
:100A700005F04CEF05F0025007E1E10E015CD8B043
:100A800044EF05F046EF05F04CEF05F0000E046E64
:100A9000080E036E04EF09F0025009E1E10E015C5B
:100AA000D8A055EF05F057EF05F068EF05F00250BC
:100AB00007E1FA0E015CD8B060EF05F062EF05F0D7
:100AC00068EF05F0000E046E090E036E04EF09F0E6
:100AD000025009E1FA0E015CD8A071EF05F073EF46
:100AE00005F084EF05F0130E015C010E0258D8B03A
:100AF0007CEF05F07EEF05F084EF05F0000E046E4C
:100B00000A0E036E04EF09F0130E015C010E025889
:100B1000D8A08DEF05F08FEF05F0A0EF05F02C0EBB
:100B2000015C010E0258D8B098EF05F09AEF05F07D
:100B3000A0EF05F0000E046E0B0E036E04EF09F03B
:100B40002C0E015C010E0258D8A0A9EF05F0ABEF06
:100B500005F0BCEF05F0450E015C010E0258D8B05F
:100B6000B4EF05F0B6EF05F0BCEF05F0000E046E33
:100B70000C0E036E04EF09F0450E015C010E0258E5
:100B8000D8A0C5EF05F0C7EF05F0D8EF05F05E0E71
:100B9000015C010E0258D8B0D0EF05F0D2EF05F09D
:100BA000D8EF05F0000E046E0D0E036E04EF09F091
:100BB0005E0E015C010E0258D8A0E1EF05F0E3EFF4
:100BC00005F0F4EF05F0770E015C010E0258D8B085
:100BD000ECEF05F0EEEF05F0F4EF05F0000E046E1B
:100BE0000E0E036E04EF09F0770E015C010E025841
:100BF000D8A0FDEF05F0FFEF05F010EF06F0900E26
:100C0000015C010E0258D8B008EF06F00AEF06F0BA
:100C100010EF06F0000E046E0F0E036E04EF09F0E5
:100C2000900E015C010E0258D8A019EF06F01BEFE0
:100C300006F02CEF06F0A90E015C010E0258D8B0A8
:100C400024EF06F026EF06F02CEF06F0000E046EFF
:100C5000100E036E04EF09F0A90E015C010E02589C
:100C6000D8A035EF06F037EF06F048EF06F0C20ED9
:100C7000015C010E0258D8B040EF06F042EF06F0DA
:100C800048EF06F0000E046E110E036E04EF09F03B
:100C9000C20E015C010E0258D8A051EF06F053EFCE
:100CA00006F064EF06F0DB0E015C010E0258D8B0CE
:100CB0005CEF06F05EEF06F064EF06F0000E046EE7
:100CC000120E036E04EF09F0DB0E015C010E0258F8
:100CD000D8A06DEF06F06FEF06F080EF06F0F40E8F
:100CE000015C010E0258D8B078EF06F07AEF06F0FA
:100CF00080EF06F0000E046E130E036E04EF09F091
:100D0000F40E015C010E0258D8A089EF06F08BEFBB
:100D100006F09CEF06F00D0E015C020E0258D8B0F2
:100D200094EF06F096EF06F09CEF06F0000E046ECE
:100D3000140E036E04EF09F00D0E015C020E025852
:100D4000D8A0A5EF06F0A7EF06F0B8EF06F0260E44
:100D5000015C020E0258D8B0B0EF06F0B2EF06F018
:100D6000B8EF06F0000E046E150E036E04EF09F0E6
:100D7000260E015C020E0258D8A0C1EF06F0C3EFA8
:100D800006F0D4EF06F03F0E015C020E0258D8B018
:100D9000CCEF06F0CEEF06F0D4EF06F0000E046EB6
:100DA000160E036E04EF09F03F0E015C020E0258AE
:100DB000D8A0DDEF06F0DFEF06F0F0EF06F0580EFA
:100DC000015C020E0258D8B0E8EF06F0EAEF06F038
:100DD000F0EF06F0000E046E170E036E04EF09F03C
:100DE000580E015C020E0258D8A0F9EF06F0FBEF96
:100DF00006F00CEF07F0710E015C020E0258D8B03D
:100E000004EF07F006EF07F00CEF07F0000E046E9A
:100E1000180E036E04EF09F0710E015C020E025809
:100E2000D8A015EF07F017EF07F028EF07F08A0EAC
:100E3000015C020E0258D8B020EF07F022EF07F055
:100E400028EF07F0000E046E190E036E04EF09F090
:100E50008A0E015C020E0258D8A031EF07F033EF82
:100E600007F044EF07F0A30E015C020E0258D8B061
:100E70003CEF07F03EEF07F044EF07F0000E046E82
:100E80001A0E036E04EF09F0A30E015C020E025865
:100E9000D8A04DEF07F04FEF07F060EF07F0BC0E62
:100EA000015C020E0258D8B058EF07F05AEF07F075
:100EB00060EF07F0000E046E1B0E036E04EF09F0E6
:100EC000BC0E015C020E0258D8A069EF07F06BEF70
:100ED00007F07CEF07F0D50E015C020E0258D8B087
:100EE00074EF07F076EF07F07CEF07F0000E046E6A
:100EF0001C0E036E04EF09F0D50E015C020E0258C1
:100F0000D8A085EF07F087EF07F098EF07F0EE0E17
:100F1000015C020E0258D8B090EF07F092EF07F094
:100F200098EF07F0000E046E1D0E036E04EF09F03B
:100F3000EE0E015C020E0258D8A0A1EF07F0A3EF5D
:100F400007F0B4EF07F0070E015C030E0258D8B0AB
:100F5000ACEF07F0AEEF07F0B4EF07F0000E046E51
:100F60001E0E036E04EF09F0070E015C030E02581B
:100F7000D8A0BDEF07F0BFEF07F0D0EF07F0200ECD
:100F8000015C030E0258D8B0C8EF07F0CAEF07F0B3
:100F9000D0EF07F0000E046E1F0E036E04EF09F091
:100FA000200E015C030E0258D8A0D9EF07F0DBEF4A
:100FB00007F0ECEF07F0390E015C030E0258D8B0D1
:100FC000E4EF07F0E6EF07F0ECEF07F0000E046E39
:100FD000200E036E04EF09F0390E015C030E025877
:100FE000D8A0F5EF07F0F7EF07F008EF08F0520E82
:100FF000015C030E0258D8B000EF08F002EF08F0D1
:1010000008EF08F0000E046E210E036E04EF09F0E5
:10101000520E015C030E0258D8A011EF08F013EF36
:1010200008F024EF08F06B0E015C030E0258D8B0F4
:101030001CEF08F01EEF08F024EF08F0000E046E1D
:10104000220E036E04EF09F06B0E015C030E0258D2
:10105000D8A02DEF08F02FEF08F040EF08F0840E35
:10106000015C030E0258D8B038EF08F03AEF08F0F0
:1010700040EF08F0000E046E230E036E04EF09F03B
:10108000840E015C030E0258D8A049EF08F04BEF24
:1010900008F05CEF08F09D0E015C030E0258D8B01A
:1010A00054EF08F056EF08F05CEF08F0000E046E05
:1010B000240E036E04EF09F09D0E015C030E02582E
:1010C000D8A065EF08F067EF08F078EF08F0B60EEB
:1010D000015C030E0258D8B070EF08F072EF08F010
:1010E00078EF08F0000E046E250E036E04EF09F091
:1010F000B60E015C030E0258D8A081EF08F083EF12
:1011000008F094EF08F0CF0E015C030E0258D8B03F
:101110008CEF08F08EEF08F094EF08F0000E046EEC
:10112000260E036E04EF09F0CF0E015C030E025889
:10113000D8A09DEF08F09FEF08F0B0EF08F0E80EA0
:10114000015C030E0258D8B0A8EF08F0AAEF08F02F
:10115000B0EF08F0000E046E270E036E04EF09F0E6
:10116000000E046E280E036E04EF09F004EF09F080
:1011700004EF09F004EF09F004EF09F004EF09F0BF
:1011800004EF09F004EF09F004EF09F004EF09F0AF
:1011900004EF09F004EF09F004EF09F004EF09F09F
:1011A00004EF09F004EF09F004EF09F004EF09F08F
:1011B00004EF09F004EF09F004EF09F004EF09F07F
:1011C00004EF09F004EF09F004EF09F004EF09F06F
:1011D00004EF09F004EF09F004EF09F004EF09F05F
:1011E00004EF09F004EF09F004EF09F004EF09F04F
:1011F00004EF09F004EF09F004EF09F004EF09F03F
:1012000004EF09F004EF09F003C001F004C002F09C
:101210000AEF09F01200320E0001726F000E736FB8
:10122000000E746F000E756F6DEC18F072C093F0C5
:1012300073C094F0170EF66E080EF76E00018C5115
:101240000900F55C0900F550800A926F8D51800A03
:101250009259D8B02EEF09F030EF09F098EF09F06D
:10126000150EF66E080EF76E0900F5508E5D8F5163
:10127000800A926F0900F550800A9259D8B043EF66
:1012800009F045EF09F098EF09F0130EF66E080E1D
:10129000F76E0900F550905D9151800A926F090038
:1012A000F550800A9259D8B058EF09F05AEF09F07A
:1012B00098EF09F0050EF66E080EF76E0900F5CFEF
:1012C0006AF00900F5CF6BF00900F5CF6CF00A0069
:1012D000F5CF6DF0190EF66E080EF76E0900F5CF1A
:1012E0006EF00A00F5CF6FF063EC22F0050EF66E9B
:1012F000080EF76E0900F5CF6EF00900F5CF6FF01C
:101300000900F5CF70F00A00F5CF71F093C072F0CC
:1013100094C073F0190EF66E080EF76E0900F5CF43
:1013200074F00A00F5CF75F059EC2BF098EF09F046
:10133000170EF66E080EF76E00018C510900F55C71
:101340000900F550800A926F8D51800A9259D8B0E9
:10135000ACEF09F0AEEF09F016EF0AF0150EF66EDD
:10136000080EF76E8E510900F55C0900F550800AF1
:10137000926F8F51800A9259D8B0C1EF09F0C3EF34
:1013800009F016EF0AF0130EF66E080EF76E09005C
:10139000F550905D9151800A926F0900F550800AD6
:1013A0009259D8B0D6EF09F0D8EF09F016EF0AF04D
:1013B000050EF66E080EF76E0900F5CF6AF009000B
:1013C000F5CF6BF00900F5CF6CF00A00F5CF6DF0AA
:1013D0001B0EF66E080EF76E0900F5CF6EF00A00D0
:1013E000F5CF6FF063EC22F0050EF66E080EF76E87
:1013F0000900F5CF6EF00900F5CF6FF00900F5CFC9
:1014000070F00A00F5CF71F093C072F094C073F0E1
:101410001B0EF66E080EF76E0900F5CF74F00A0089
:10142000F5CF75F059EC2BF016EF0AF0170EF66EAB
:10143000080EF76E0900F55000018C5D8D51800A91
:10144000926F0900F550800A9259D8B02AEF0AF03D
:101450002CEF0AF094EF0AF0150EF66E080EF76EF8
:101460000900F5508E5D8F51800A926F0900F5508A
:10147000800A9259D8B03FEF0AF041EF0AF094EF9A
:101480000AF0130EF66E080EF76E0900F550905D27
:101490009151800A926F0900F550800A9259D8B094
:1014A00054EF0AF056EF0AF094EF0AF0090EF66EC8
:1014B000080EF76E0900F5CF6AF00900F5CF6BF062
:1014C0000900F5CF6CF00A00F5CF6DF0190EF66E3D
:1014D000080EF76E0900F5CF6EF00A00F5CF6FF039
:1014E00063EC22F0090EF66E080EF76E0900F5CFD8
:1014F0006EF00900F5CF6FF00900F5CF70F00A002B
:10150000F5CF71F093C072F094C073F0190EF66EBF
:10151000080EF76E0900F5CF74F00A00F5CF75F0EC
:1015200059EC2BF094EF0AF0170EF66E080EF76EDA
:101530000900F55000018C5D8D51800A926F090001
:10154000F550800A9259D8B0A8EF0AF0AAEF0AF035
:1015500012EF0BF0150EF66E080EF76E8E510900A5
:10156000F55C0900F550800A926F8F51800A9259FC
:10157000D8B0BDEF0AF0BFEF0AF012EF0BF0130E78
:10158000F66E080EF76E0900F550905D9151800AD5
:10159000926F0900F550800A9259D8B0D2EF0AF044
:1015A000D4EF0AF012EF0BF0090EF66E080EF76E8C
:1015B0000900F5CF6AF00900F5CF6BF00900F5CF0F
:1015C0006CF00A00F5CF6DF01B0EF66E080EF76E8C
:1015D0000900F5CF6EF00A00F5CF6FF063EC22F052
:1015E000090EF66E080EF76E0900F5CF6EF00900D1
:1015F000F5CF6FF00900F5CF70F00A00F5CF71F06C
:1016000093C072F094C073F01B0EF66E080EF76E66
:101610000900F5CF74F00A00F5CF75F059EC2BF006
:1016200012EF0BF0170EF66E080EF76E00018C51DC
:101630000900F55C0900F550800A926F8D51800A0F
:101640009259D8B026EF0BF028EF0BF090EF0BF08B
:10165000150EF66E080EF76E0900F5508E5D8F516F
:10166000800A926F0900F550800A9259D8B03BEF7A
:101670000BF03DEF0BF090EF0BF0130EF66E080E33
:10168000F76E90510900F55C0900F550800A926FE1
:101690009151800A9259D8B050EF0BF052EF0BF0F5
:1016A00090EF0BF0090EF66E080EF76E0900F5CFFD
:1016B0006AF00900F5CF6BF00900F5CF6CF00A0075
:1016C000F5CF6DF0190EF66E080EF76E0900F5CF26
:1016D0006EF00A00F5CF6FF063EC22F0090EF66EA3
:1016E000080EF76E0900F5CF6EF00900F5CF6FF028
:1016F0000900F5CF70F00A00F5CF71F093C072F0D9
:1017000094C073F0190EF66E080EF76E0900F5CF4F
:1017100074F00A00F5CF75F059EC2BF090EF0BF058
:10172000170EF66E080EF76E00018C510900F55C7D
:101730000900F550800A926F8D51800A9259D8B0F5
:10174000A4EF0BF0A6EF0BF00EEF0CF0150EF66EFB
:10175000080EF76E8E510900F55C0900F550800AFD
:10176000926F8F51800A9259D8B0B9EF0BF0BBEF4E
:101770000BF00EEF0CF0130EF66E080EF76E905194
:101780000900F55C0900F550800A926F9151800ABA
:101790009259D8B0CEEF0BF0D0EF0BF00EEF0CF06B
:1017A000090EF66E080EF76E0900F5CF6AF0090013
:1017B000F5CF6BF00900F5CF6CF00A00F5CF6DF0B6
:1017C000190EF66E080EF76E0900F5CF6EF00A00DE
:1017D000F5CF6FF063EC22F0090EF66E080EF76E8F
:1017E0000900F5CF6EF00900F5CF6FF00900F5CFD5
:1017F00070F00A00F5CF71F093C072F094C073F0EE
:10180000190EF66E080EF76E0900F5CF74F00A0097
:10181000F5CF75F059EC2BF00EEF0CF0170EF66EBD
:10182000080EF76E0900F55000018C5D8D51800A9D
:10183000926F0900F550800A9259D8B022EF0CF04F
:1018400024EF0CF08CEF0CF0150EF66E080EF76E10
:101850000900F5508E5D8F51800A926F0900F55096
:10186000800A9259D8B037EF0CF039EF0CF08CEFBA
:101870000CF0130EF66E080EF76E90510900F55C31
:101880000900F550800A926F9151800A9259D8B0A0
:101890004CEF0CF04EEF0CF08CEF0CF0090EF66EE6
:1018A000080EF76E0900F5CF6AF00900F5CF6BF06E
:1018B0000900F5CF6CF00A00F5CF6DF01B0EF66E47
:1018C000080EF76E0900F5CF6EF00A00F5CF6FF045
:1018D00063EC22F0090EF66E080EF76E0900F5CFE4
:1018E0006EF00900F5CF6FF00900F5CF70F00A0037
:1018F000F5CF71F093C072F094C073F01B0EF66ECA
:10190000080EF76E0900F5CF74F00A00F5CF75F0F8
:1019100059EC2BF08CEF0CF0170EF66E080EF76EEC
:101920000900F55000018C5D8D51800A926F09000D
:10193000F550800A9259D8B0A0EF0CF0A2EF0CF04D
:101940000AEF0DF0150EF66E080EF76E8E510900B7
:10195000F55C0900F550800A926F8F51800A925908
:10196000D8B0B5EF0CF0B7EF0CF00AEF0DF0130E96
:10197000F66E080EF76E90510900F55C0900F550FF
:10198000800A926F9151800A9259D8B0CAEF0CF038
:10199000CCEF0CF00AEF0DF0090EF66E080EF76EA4
:1019A0000900F5CF6AF00900F5CF6BF00900F5CF1B
:1019B0006CF00A00F5CF6DF01B0EF66E080EF76E98
:1019C0000900F5CF6EF00A00F5CF6FF063EC22F05E
:1019D000090EF66E080EF76E0900F5CF6EF00900DD
:1019E000F5CF6FF00900F5CF70F00A00F5CF71F078
:1019F00093C072F094C073F01B0EF66E080EF76E73
:101A00000900F5CF74F00A00F5CF75F059EC2BF012
:101A10000AEF0DF00D0EF66E080EF76E0900F5CF09
:101A200060F00900F5CF61F00900F5CF62F00A001F
:101A3000F5CF63F093C064F094C065F0FFEC22F042
:101A400012004450800B516E44504424536E43AEF8
:101A50002CEF0DF02EEF0DF031EF0DF0538031EF44
:101A60000DF05350D8B437EF0DF039EF0DF050EFC3
:101A70000DF05328D8A43FEF0DF041EF0DF04BEFE0
:101A80000DF0000E416E000E426E000E436E000E11
:101A9000446E4BEF0DF0438E000E446E5AEF0DF086
:101AA000000E416E000E426E000E436E000E446E3C
:101AB0005AEF0DF04850800B526E51505218D8B466
:101AC00064EF0DF066EF0DF069EF0DF0518C69EFEA
:101AD0000DF048504824526E47AE71EF0DF073EF91
:101AE0000DF076EF0DF0528076EF0DF05250D8B435
:101AF0007CEF0DF07EEF0DF095EF0DF05228D8A49D
:101B000084EF0DF086EF0DF090EF0DF0000E456EB6
:101B1000000E466E000E476E000E486E90EF0DF000
:101B2000478E000E486E9FEF0DF0000E456E000EC2
:101B3000466E000E476E000E486E9FEF0DF053503C
:101B4000525CD8B0A6EF0DF0A8EF0DF0D3EF0DF07A
:101B500051ACADEF0DF0AFEF0DF0B3EF0DF0800E27
:101B6000511AB3EF0DF053C054F052C053F054C0AB
:101B700052F041C054F045C041F054C045F042C05D
:101B800054F046C042F054C046F043C054F047C041
:101B900043F054C047F044C054F048C044F054C02F
:101BA00048F0D3EF0DF0000E546E5350496E4A6A60
:101BB000491E4A1E494A4A2A52504B6E4C6A4950A5
:101BC0004B264A504C224CBEEFEF0DF04C5009E131
:101BD0001A0E4B5CD8A0EFEF0DF0F1EF0DF02EEFE9
:101BE0000EF04150421043104410D8A4FAEF0DF00B
:101BF000FDEF0DF0010EFEEF0DF0000E546E000E25
:101C0000416E000E426E000E436E000E446E52C0D6
:101C100053F039EF0EF02EEF0EF054A012EF0EF04D
:101C200014EF0EF01AEF0EF0D89054300109546EF4
:101C30001EEF0EF0D89054321EEF0EF041A023EFAD
:101C40000EF025EF0EF028EF0EF0548E28EF0EF078
:101C500044344432433242324132532A5250535C6C
:101C6000D8A035EF0EF037EF0EF00DEF0EF039EF94
:101C70000EF051BC3EEF0EF040EF0EF088EF0EF08C
:101C80005350D8A446EF0EF048EF0EF054EF0EF08C
:101C9000000E416E000E426E000E436E000E446E4A
:101CA000E2EF0FF0E2EF0FF045504126465042229E
:101CB000475043224850442244A061EF0EF063EFA6
:101CC0000EF038EF0FF054A068EF0EF06AEF0EF050
:101CD00070EF0EF0D89054300109546E74EF0EF08E
:101CE000D890543274EF0EF041A079EF0EF07BEFF4
:101CF0000EF07EEF0EF0548E7EEF0EF04434443240
:101D0000433242324132532A38EF0FF038EF0FF0AE
:101D10004550415C46504258475043584450800A11
:101D2000496E4850800A4958D8B099EF0EF09BEFA1
:101D30000EF0D9EF0EF041C049F042C04AF043C066
:101D40004BF044C04CF0491E4A1E4B1E4C1E492A03
:101D5000000E4A224B224C22455049244D6E4650DB
:101D60004A204E6E47504B204F6E48504C20506ECC
:101D7000FF0E4D24416EFF0E4E20426EFF0E4F208F
:101D8000436EFF0E5020446E800E511A546C545016
:101D9000D8A4CDEF0EF0CFEF0EF0E1EF0EF0010E74
:101DA0004126000E422243224422E1EF0EF0E1EFF1
:101DB0000EF04550415E4650425A4750435A4850F3
:101DC000445A4150421043104410D8A4EAEF0EF098
:101DD000ECEF0EF02DEF0FF05450D8A4F2EF0EF010
:101DE000F4EF0EF02DEF0FF0000E416E000E426E7C
:101DF000000E436E000E446EE2EF0FF0E2EF0FF0C4
:101E00002DEF0FF0D890413642364336443654AE6B
:101E10000CEF0FF00EEF0FF011EF0FF0418011EF0C
:101E20000FF054A016EF0FF018EF0FF01CEF0FF0AB
:101E3000D880543620EF0FF0D890543620EF0FF0B2
:101E40005350D8B426EF0FF028EF0FF02DEF0FF01E
:101E500053062DEF0FF02DEF0FF043AE32EF0FF0E2
:101E600034EF0FF002EF0FF038EF0FF038EF0FF014
:101E7000000E526E54AE3FEF0FF041EF0FF05DEFEA
:101E80000FF054C049F07F0E4916D8B44AEF0FF056
:101E90004CEF0FF050EF0FF0010E526E5DEF0FF0B0
:101EA00041A055EF0FF057EF0FF05DEF0FF0010E6F
:101EB000526E5DEF0FF05DEF0FF05250D8B463EF4C
:101EC0000FF065EF0FF096EF0FF0010E4126000EB8
:101ED00042224322442244A070EF0FF072EF0FF031
:101EE00096EF0FF041C049F042C04AF043C04BF0BA
:101EF00044C04CF04C344C324B324A32493249C027
:101F000041F04AC042F04BC043F04CC044F053286B
:101F1000D8B48DEF0FF08FEF0FF096EF0FF0532A3C
:101F200096EF0FF096EF0FF096EF0FF05328D8B41E
:101F30009CEF0FF09EEF0FF0A8EF0FF05350D8A4D6
:101F4000A4EF0FF0A6EF0FF0BEEF0FF0A8EF0FF029
:101F5000000E416E000E426E000E436E000E446E87
:101F60005350D8A4B6EF0FF0B8EF0FF0BEEF0FF05C
:101F7000000E516EBEEF0FF0BEEF0FF053A0C3EF97
:101F80000FF0C5EF0FF0C8EF0FF0438ECBEF0FF05F
:101F9000439ECBEF0FF0D8905330446E51AED3EF49
:101FA0000FF0D5EF0FF0D8EF0FF0448ED8EF0FF011
:101FB00041C041F042C042F043C043F044C044F04D
:101FC000E2EF0FF01200025007E1320E015CD8B0D0
:101FD000ECEF0FF0EEEF0FF0F4EF0FF0000E046EE9
:101FE000050E036E16EF12F0025009E1320E015C8D
:101FF000D8A0FDEF0FF0FFEF0FF010EF10F0025040
:1020000007E1640E015CD8B008EF10F00AEF10F0A1
:1020100010EF10F0000E046E0A0E036E16EF12F0B1
:10202000025009E1640E015CD8A019EF10F01BEF1B
:1020300010F02CEF10F0025007E1960E015CD8B0C2
:1020400024EF10F026EF10F02CEF10F0000E046ECD
:102050000F0E036E16EF12F0025009E1960E015CAE
:10206000D8A035EF10F037EF10F048EF10F0025025
:1020700007E1C80E015CD8B040EF10F042EF10F05D
:1020800048EF10F0000E046E140E036E16EF12F0FF
:10209000025009E1C80E015CD8A051EF10F053EFD7
:1020A00010F064EF10F0025007E1FA0E015CD8B0B6
:1020B0005CEF10F05EEF10F064EF10F0000E046EB5
:1020C000190E036E16EF12F0025009E1FA0E015CD0
:1020D000D8A06DEF10F06FEF10F080EF10F02C0E25
:1020E000015C010E0258D8B078EF10F07AEF10F0D2
:1020F00080EF10F0000E046E1E0E036E16EF12F04D
:102100002C0E015C010E0258D8A089EF10F08BEF65
:1021100010F09CEF10F05E0E015C010E0258D8B07A
:1021200094EF10F096EF10F09CEF10F0000E046E9C
:10213000230E036E16EF12F05E0E015C010E0258C4
:10214000D8A0A5EF10F0A7EF10F0B8EF10F0900EA8
:10215000015C010E0258D8B0B0EF10F0B2EF10F0F1
:10216000B8EF10F0000E046E280E036E16EF12F09A
:10217000900E015C010E0258D8A0C1EF10F0C3EF21
:1021800010F0D4EF10F0C20E015C010E0258D8B06E
:10219000CCEF10F0CEEF10F0D4EF10F0000E046E84
:1021A0002D0E036E16EF12F0C20E015C010E0258E6
:1021B000D8A0DDEF10F0DFEF10F0F0EF10F0F40E2C
:1021C000015C010E0258D8B0E8EF10F0EAEF10F011
:1021D000F0EF10F0000E046E320E036E16EF12F0E8
:1021E000F40E015C010E0258D8A0F9EF10F0FBEFDD
:1021F00010F00CEF11F0260E015C020E0258D8B060
:1022000004EF11F006EF11F00CEF11F0000E046E68
:10221000370E036E16EF12F0260E015C020E025806
:10222000D8A015EF11F017EF11F028EF11F0580EAC
:10223000015C020E0258D8B020EF11F022EF11F02D
:1022400028EF11F0000E046E3C0E036E16EF12F034
:10225000580E015C020E0258D8A031EF11F033EF96
:1022600011F044EF11F08A0E015C020E0258D8B052
:102270003CEF11F03EEF11F044EF11F0000E046E50
:10228000410E036E16EF12F08A0E015C020E025828
:10229000D8A04DEF11F04FEF11F060EF11F0BC0E30
:1022A000015C020E0258D8B058EF11F05AEF11F04D
:1022B00060EF11F0000E046E460E036E16EF12F082
:1022C000BC0E015C020E0258D8A069EF11F06BEF52
:1022D00011F07CEF11F0EE0E015C020E0258D8B046
:1022E00074EF11F076EF11F07CEF11F0000E046E38
:1022F0004B0E036E16EF12F0EE0E015C020E02584A
:10230000D8A085EF11F087EF11F098EF11F0200EB3
:10231000015C030E0258D8B090EF11F092EF11F06B
:1023200098EF11F0000E046E500E036E16EF12F0CF
:10233000200E015C030E0258D8A0A1EF11F0A3EF0C
:1023400011F0B4EF11F0520E015C030E0258D8B038
:10235000ACEF11F0AEEF11F0B4EF11F0000E046E1F
:10236000550E036E16EF12F0520E015C030E02586A
:10237000D8A0BDEF11F0BFEF11F0D0EF11F0840E37
:10238000015C030E0258D8B0C8EF11F0CAEF11F08B
:10239000D0EF11F0000E046E5A0E036E16EF12F01D
:1023A000840E015C030E0258D8A0D9EF11F0DBEFC8
:1023B00011F0ECEF11F0B60E015C030E0258D8B02C
:1023C000E4EF11F0E6EF11F0ECEF11F0000E046E07
:1023D0005F0E036E16EF12F0000E046E640E036EB5
:1023E00016EF12F016EF12F016EF12F016EF12F0D1
:1023F00016EF12F016EF12F016EF12F016EF12F0C1
:1024000016EF12F016EF12F016EF12F016EF12F0B0
:1024100016EF12F016EF12F016EF12F016EF12F0A0
:1024200016EF12F016EF12F016EF12F003C001F0E3
:1024300004C002F01CEF12F012001250800B1B6E51
:1024400012501224216E11AE28EF12F02AEF12F072
:102450002DEF12F021802DEF12F02150D8B433EF80
:1024600012F035EF12F04AEF12F02128D8A43BEF1A
:1024700012F03DEF12F047EF12F0000E0F6E000E5B
:10248000106E000E116E000E126E47EF12F0118EDC
:1024900054EF12F0000E0F6E000E106E000E116E53
:1024A000000E126E54EF12F01650800B1B1A1650CD
:1024B0001624206E15AE5FEF12F061EF12F064EF9C
:1024C00012F0208064EF12F02050D8B46AEF12F0BE
:1024D0006CEF12F081EF12F02028D8A472EF12F006
:1024E00074EF12F07EEF12F0000E136E000E146EF9
:1024F000000E156E000E166E7EEF12F0158E89EF2F
:1025000012F0000E136E000E146E000E156E000E0B
:10251000166E2050D8B48FEF12F091EF12F09BEFAF
:1025200012F02150D8A497EF12F099EF12F0A7EF14
:1025300012F09BEF12F0000E0F6E000E106E000EE8
:10254000116E000E126E53EF14F053EF14F015508D
:102550000F02F3CF26F0F4CF27F026501C6E1D6A31
:102560001E6A1F6A2750226E236A246A256A145045
:102570001002F3CF26F0F4CF27F026501C26000ED1
:102580001D221E221F2227502226000E2322242233
:10259000252213501102F3CF26F0F4CF27F0265056
:1025A0001C26000E1D221E221F2227502226000E4E
:1025B0002322242225221EC01FF01DC01EF01CC095
:1025C0001DF01C6A13501002F3CF26F0F4CF27F051
:1025D00026501C2627501D22000E1E22000E1F22F0
:1025E00014500F02F3CF26F0F4CF27F026501C260C
:1025F00027501D22000E1E22000E1F221EC01FF09B
:102600001DC01EF01CC01DF01C6A13500F02F3CF3A
:1026100026F0F4CF27F026501C2627501D22000E4E
:102620001E22000E1F2215501002F3CF26F0F4CF09
:1026300027F02650222627502322000E2422000EA7
:10264000252214501102F3CF26F0F4CF27F02650A4
:10265000222627502322000E2422000E2522155068
:102660001102F3CF26F0F4CF27F02650176E275033
:10267000186E196A1A6A19C01AF018C019F017C032
:1026800018F0176A175022261850232219502422B6
:102690001A5025221CC017F01DC018F01EC019F0DA
:1026A0001FC01AF0190E5AEF13F0D8901A321932CF
:1026B00018321732E82E55EF13F017502226185013
:1026C0002322195024221A5025221EC01FF01DC09B
:1026D0001EF01CC01DF01C6A205021C017F0186AA3
:1026E0001726000E1822820E1724266EFF0E1820C1
:1026F000276E92EF13F0D8902236233624362536F3
:102700001FAE85EF13F087EF13F088EF13F02280F0
:10271000D8901C361D361E361F362606D8A0270632
:1027200092EF13F024AE97EF13F099EF13F07BEFD5
:1027300013F09BEF13F0000E206E1FAEA2EF13F00C
:10274000A4EF13F0CCEF13F0FF0E1C14176EFF0E66
:102750001D14186EFF0E1E14196E7F0E1F141A6EB4
:102760001750181019101A10D8B4B9EF13F0BBEFA6
:1027700013F0BFEF13F0010E206ECCEF13F022A088
:10278000C4EF13F0C6EF13F0CCEF13F0010E206E80
:10279000CCEF13F0CCEF13F02050D8B4D2EF13F0FD
:1027A000D4EF13F0FCEF13F0010E2226000E2322CB
:1027B0002422252225A0DFEF13F0E1EF13F0FCEF38
:1027C00013F022C017F023C018F024C019F025C060
:1027D0001AF01A341A3219321832173217C022F08E
:1027E00018C023F019C024F01AC025F0264A272A61
:1027F000FCEF13F0FCEF13F027BE07EF14F02750A7
:1028000008E12628D8A007EF14F009EF14F013EF21
:1028100014F0000E226E000E236E800E246E7F0ECA
:10282000256E47EF14F027BE20EF14F0275006E185
:102830002604D8B01EEF14F020EF14F02CEF14F0A3
:10284000000E226E000E236E000E246E000E256E0A
:10285000000E1B6E47EF14F026C021F0FF0E22166B
:10286000FF0E23167F0E2416000E251621A03BEF27
:1028700014F03DEF14F040EF14F0248E40EF14F00C
:10288000D8902130256E47EF14F047EF14F01B501D
:10289000251222C00FF023C010F024C011F025C073
:1028A00012F053EF14F012002B50800B386E2B50A7
:1028B0002B243F6E2AAE5FEF14F061EF14F064EF4B
:1028C00014F03F8064EF14F03F50D8B46AEF14F076
:1028D0006CEF14F083EF14F03F28D8A472EF14F0DB
:1028E00074EF14F07EEF14F0000E286E000E296EC7
:1028F000000E2A6E000E2B6E7EEF14F02A8E000E54
:102900002B6E8DEF14F0000E286E000E296E000E57
:102910002A6E000E2B6E8DEF14F02F50800B381A9C
:102920002F502F24406E2EAE98EF14F09AEF14F033
:102930009DEF14F040809DEF14F04050D8B4A3EF09
:1029400014F0A5EF14F0BCEF14F04028D8A4ABEFBE
:1029500014F0ADEF14F0B7EF14F0000E2C6E000E73
:102960002D6E000E2E6E000E2F6EB7EF14F02E8E11
:10297000000E2F6EC6EF14F0000E2C6E000E2D6EA2
:10298000000E2E6E000E2F6EC6EF14F02C502D1080
:102990002E102F10D8A4CFEF14F0D1EF14F0EBEFDE
:1029A00014F0000E286E000E296E000E2A6E000E26
:1029B0002B6E800E2A127F0E2B1238502B1228C03D
:1029C00028F029C029F02AC02AF02BC02BF063EF91
:1029D00016F063EF16F03F50D8A4F1EF14F0F3EFC8
:1029E00014F007EF15F0000E286E000E296E000E91
:1029F0002A6E000E2B6E28C028F029C029F02AC0AC
:102A00002AF02BC02BF063EF16F063EF16F0405066
:102A1000306E316A301E311E304A312A3F50326EDC
:102A2000336A30503226315033227F0E3224396ED1
:102A3000000E33203A6E28C034F029C035F02AC089
:102A400036F02BC037F0000E286E000E296E000EF7
:102A50002A6E000E2B6E000E3B6E000E3C6E000EBA
:102A60003D6E000E3E6E000E406E73EF15F040504E
:102A7000D8B43DEF15F03FEF15F058EF15F0D890B2
:102A80003436353636363736D890283629362A3613
:102A90002B363EAE4EEF15F050EF15F051EF15F01E
:102AA0002880D8903B363C363D363E3658EF15F000
:102AB0002C50345C2D5035582E5036582F503758E6
:102AC000D8A065EF15F067EF15F072EF15F03E8CAA
:102AD0002C50345E2D50355A2E50365A2F50375ABE
:102AE00072EF15F0402A190E406479EF15F07BEF74
:102AF00015F037EF15F07DEF15F034503510361026
:102B00003710D8B486EF15F088EF15F0A4EF15F064
:102B10003B80A4EF15F0A4EF15F0D89028362936A5
:102B20002A362B363EAE97EF15F099EF15F09AEF57
:102B300015F02880D8903B363C363D363E36390677
:102B4000D8A03A06A4EF15F02AAEA9EF15F0ABEF26
:102B500015F08DEF15F0ADEF15F0000E406E3EAEA6
:102B6000B4EF15F0B6EF15F0DEEF15F0FF0E3B14E5
:102B7000306EFF0E3C14316EFF0E3D14326E7F0E30
:102B80003E14336E3050311032103310D8B4CBEFC6
:102B900015F0CDEF15F0D1EF15F0010E406EDEEF20
:102BA00015F028A0D6EF15F0D8EF15F0DEEF15F0F0
:102BB000010E406EDEEF15F0DEEF15F04050D8B498
:102BC000E4EF15F0E6EF15F00EEF16F0010E2826F3
:102BD000000E29222A222B222BA0F1EF15F0F3EF71
:102BE00015F00EEF16F028C030F029C031F02AC0E1
:102BF00032F02BC033F033343332323231323032B0
:102C000030C028F031C029F032C02AF033C02BF098
:102C1000394A3A2A0EEF16F00EEF16F03ABE19EFC7
:102C200016F03A5008E13928D8A019EF16F01BEF3A
:102C300016F028EF16F0000E3A6E3968000E286E76
:102C4000000E296E000E2A6E000E2B6E28EF16F075
:102C50003ABE35EF16F03A5006E13904D8B033EFFA
:102C600016F035EF16F045EF16F0000E3A6E000E36
:102C7000396E000E286E000E296E000E2A6E000EB0
:102C80002B6E000E386E45EF16F039C03FF03FA0B6
:102C90004CEF16F04EEF16F051EF16F02A8E54EF6F
:102CA00016F02A9E54EF16F0D8903F302B6E385015
:102CB0002B1228C028F029C029F02AC02AF02BC0E6
:102CC0002BF063EF16F01200EEC06AF0EFC06BF06D
:102CD000F0C06CF0F1C06DF055C06AF056C06BF0FA
:102CE00057C06CF058C06DF06AC059F06BC05AF014
:102CF0006CC05BF06DC05CF0180E84EF16F0D890DD
:102D00005C325B325A325932E82E7FEF16F059505E
:102D10000001646F656B65BF97EF16F0655109E1BF
:102D2000960E645DD8A097EF16F099EF16F0A3EF1A
:102D300016F055C055F056C056F057C057F058C061
:102D400058F06CEF18F06AC059F06BC05AF06CC0C4
:102D50005BF06DC05CF0200EB3EF16F0D8905C32E3
:102D60005B325A325932E82EAEEF16F059505A10F3
:102D70005B105C10D8B4BFEF16F0C1EF16F0D5EFC2
:102D800016F055C001F056C002F057C003F058C00D
:102D900004F003EC2BF001C055F002C056F003C064
:102DA00057F004C058F0D5EF16F0000165BFE4EF0E
:102DB00016F0655107E17E0E645DD8B0E2EF16F0C3
:102DC000E4EF16F002EF17F06AC00FF06BC010F0DE
:102DD0006CC011F06DC012F0000E136E000E146E78
:102DE000000E156E000E166E1DEC12F00FC055F0A1
:102DF00010C056F011C057F012C058F06CEF18F028
:102E00006CEF18F0010EF66E080EF76E0900F5CFA4
:102E100045F00900F5CF46F00900F5CF47F00A006C
:102E2000F5CF48F055C041F056C042F057C043F0CE
:102E300058C044F021EC0DF041C066F042C067F08C
:102E400043C068F044C069F0010EF66E080EF76EDC
:102E50000900F5CF01F00900F5CF02F00900F5CF28
:102E600003F00A00F5CF04F003EC2BF001C045F0AD
:102E700002C046F003C047F004C048F066C041F00D
:102E800067C042F068C043F069C044F021EC0DF027
:102E900041C060F042C061F043C062F044C063F0E2
:102EA00060C041F061C042F062C043F063C044F0D2
:102EB00055C001F056C002F057C003F058C004F0EE
:102EC00003EC2BF001C045F002C046F003C047F010
:102ED00004C048F021EC0DF041C06EF042C06FF02C
:102EE00043C070F044C071F0000E016E000E026E1F
:102EF000000E036E3F0E046E6EC005F06FC006F04C
:102F000070C007F071C008F056EC20F0D8B08BEF1D
:102F100017F08DEF17F0C3EF17F055C045F056C00E
:102F200046F057C047F058C048F06EC041F06FC03F
:102F300042F070C043F071C044F021EC0DF041C08C
:102F400066F042C067F043C068F044C069F066C0F4
:102F500041F067C042F068C043F069C044F0000E21
:102F6000456E000E466E800E476EBF0E486E21EC19
:102F70000DF041C06EF042C06FF043C070F044C02D
:102F800071F030EF18F0000E016E000E026E000EB0
:102F9000036EBF0E046E6EC005F06FC006F070C009
:102FA00007F071C008F056EC20F0D8A0DAEF17F067
:102FB000DCEF17F012EF18F055C045F056C046F0A0
:102FC00057C047F058C048F06EC041F06FC042F0A3
:102FD00070C043F071C044F021EC0DF041C066F0C8
:102FE00042C067F043C068F044C069F066C041F079
:102FF00067C042F068C043F069C044F0000E456EFF
:10300000000E466E800E476E3F0E486E21EC0DF0AE
:1030100041C06EF042C06FF043C070F044C071F028
:1030200030EF18F06EC041F06FC042F070C043F056
:1030300071C044F055C045F056C046F057C047F047
:1030400058C048F021EC0DF041C06EF042C06FF066
:1030500043C070F044C071F030EF18F030EF18F05A
:103060006AC059F06BC05AF06CC05BF06DC05CF088
:10307000200E40EF18F0D8905C325B325A32593251
:10308000E82E3BEF18F059505A105B105C10D8B482
:103090004CEF18F04EEF18F062EF18F06EC001F030
:1030A0006FC002F070C003F071C004F003EC2BF0AD
:1030B00001C06EF002C06FF003C070F004C071F088
:1030C00062EF18F06EC055F06FC056F070C057F048
:1030D00071C058F06CEF18F01200E80E0001886F14
:1030E000010E896F000E8A6F000E8B6F755174117F
:1030F00009E1400E725D1F0E7359D8B082EF18F0CF
:1031000084EF18F08EEF18F0000E7B6F020E7A6FCE
:10311000000E7D6F100E7C6F98EF18F0000E7B6F25
:10312000000E7A6F000E7D6F010E7C6F98EF18F025
:103130007251885D7351895974518A5975518B59EF
:10314000D8B0A5EF18F0A7EF18F0B5EF18F0000E03
:10315000836F070E826F000E7E6F120E7F6F7A0EE6
:10316000806F000E816F9BEF19F0D8908B338A33FC
:10317000893388337251885D7351895974518A59E2
:1031800075518B59D8B0C7EF18F0C9EF18F0D7EFC9
:1031900018F0000E836F060E826F000E7E6F090E10
:1031A0007F6F3D0E806F000E816F9BEF19F0D890FE
:1031B0008B338A33893388337251885D73518959CF
:1031C00074518A5975518B59D8B0E9EF18F0EBEF6B
:1031D00018F0F9EF18F0000E836F050E826F800E65
:1031E0007E6F840E7F6F1E0E806F000E816F9BEFCF
:1031F00019F0D8908B338A33893388337251885DC4
:103200007351895974518A5975518B59D8B00BEF44
:1032100019F00DEF19F01BEF19F0000E836F040E7B
:10322000826F400E7E6F420E7F6F0F0E806F000E1A
:10323000816F9BEF19F0D8908B338A3389338833B1
:103240007251885D7351895974518A5975518B59DE
:10325000D8B02DEF19F02FEF19F03DEF19F0000E57
:10326000836F030E826F200E7E6FA10E7F6F070E9D
:10327000806F000E816F9BEF19F0D8908B338A33EB
:10328000893388337251885D7351895974518A59D1
:1032900075518B59D8B04FEF19F051EF19F05FEF1E
:1032A00019F0000E836F020E826F900E7E6FD00EAB
:1032B0007F6F030E806F000E816F9BEF19F0D89027
:1032C0008B338A33893388337251885D73518959BE
:1032D00074518A5975518B59D8B071EF19F073EF49
:1032E00019F081EF19F0000E836F010E826F480E06
:1032F0007E6FE80E7F6F010E806F000E816F9BEF77
:1033000019F0000E836F000E826F180E7E6F790E1B
:103310007F6F000E806F000E816F9BEF19F09BEFA7
:1033200019F09BEF19F09BEF19F09BEF19F09BEF51
:1033300019F09BEF19F0000E136E000E146E800E44
:10334000156E400E166E7CC001F07DC002F0000EBE
:1033500002BEFF0E036E046E010EE4EC1CF001C011
:103360000FF002C010F003C011F004C012F01DEC09
:1033700012F00FC076F010C077F011C078F012C0D4
:1033800079F072C001F073C002F074C003F075C030
:1033900004F0000EE4EC1CF001C013F002C014F0C5
:1033A00003C015F004C016F076C00FF077C010F01F
:1033B00078C011F079C012F01DEC12F00FC02CF0A3
:1033C00010C02DF011C02EF012C02FF07EC001F001
:1033D0007FC002F080C003F081C004F0000EE4EC76
:1033E0001CF001C028F002C029F003C02AF004C07C
:1033F0002BF054EC14F028C041F029C042F02AC050
:1034000043F02BC044F0000E456E000E466E800E59
:10341000476EBF0E486E21EC0DF041C084F042C0F3
:1034200085F043C086F044C087F084C055F085C065
:1034300056F086C057F087C058F064EC16F055C0BF
:1034400084F056C085F057C086F058C087F082C01F
:103450005FF0070E5F165F38F00B0209D36E84C071
:1034600055F085C056F086C057F087C058F0BAECCA
:1034700021F05550CB6E7AC0CAFF000ECC6ECA84C4
:1034800084C055F085C056F086C057F087C058F00C
:10349000BAEC21F055C072F056C073F050EF1AF03C
:1034A00012001EC036F01FC037F020C038F021C017
:1034B00039F022C03AF023C03BF024C03CF025C0D4
:1034C0003DF03DBE66EF1AF069EF1AF0010E6AEFAB
:1034D0001AF0000E346E356A34503510D8B473EFDC
:1034E0001AF075EF1AF087EF1AF03D1E3C1E3B1ED6
:1034F0003A1E391E381E371E366C000E372238220F
:1035000039223A223B223C223D2287EF1AF0000169
:10351000F7BF8DEF1AF08FEF1AF092EF1AF0F893D1
:1035200092EF1AF0F7BF9FEF1AF0F75106E1F60598
:10353000D8B09DEF1AF09FEF1AF0A5EF1AF0000E29
:10354000316E010E306EA9EF1AF0F6C030F0F7C000
:1035500031F0F4C032F0F5C033F034503510D8A457
:10356000B4EF1AF0B6EF1AF0BFEF1AF0F8A5BBEF00
:103570001AF0BDEF1AF0C4EF1AF0BFEF1AF03206DE
:10358000D8A03306C4EF1AF0000E3F6E1F0E3E6E39
:10359000000E3E24D96E010E3F20DA6E000EDF6E63
:1035A00050EF1BF03E06D8A03F06000E3E24D96E19
:1035B000010E3F20DA6E36C001F037C002F038C08D
:1035C00003F039C004F03AC005F03BC006F03CC03F
:1035D00007F03DC008F00A0E096E000E0A6E000EDC
:1035E0000B6E000E0C6E000E0D6E000E0E6E000EB9
:1035F0000F6E000E106E90EC1FF001C026F002C09E
:1036000027F003C028F004C029F005C02AF006C046
:103610002BF007C02CF008C02DF026C013F028C0F6
:1036200014F0C0EC2AF01350300FDF6E3006D8A033
:1036300031063206D8A0330636C001F037C002F09A
:1036400038C003F039C004F03AC005F03BC006F0C2
:103650003CC007F03DC008F00A0E096E000E0A6E6D
:10366000000E0B6E000E0C6E000E0D6E000E0E6E38
:10367000000E0F6E000E106EB8EC1EF001C036F09A
:1036800002C037F003C038F004C039F005C03AF08A
:1036900006C03BF007C03CF008C03DF050EF1BF007
:1036A0003FBE5BEF1BF03F5008E13E04D8A05BEF4C
:1036B0001BF05DEF1BF094EF1BF036503710381005
:1036C00039103A103B103C103D10D8A46AEF1BF0A3
:1036D0006CEF1BF0D2EF1AF031BE79EF1BF03150D6
:1036E00006E13004D8B077EF1BF079EF1BF0D2EF92
:1036F0001AF033BE84EF1BF0335008E13204D8A037
:1037000084EF1BF086EF1BF094EF1BF00001F8B381
:103710008CEF1BF08EEF1BF0D2EF1AF094EF1BF042
:1037200094EF1BF094EF1BF034503510D8A49BEFAE
:103730001BF09DEF1BF0A7EF1BF00001F8A5A3EF16
:103740001BF0A5EF1BF0C9EF1BF0A7EF1BF03E0627
:10375000D8A03F0634503510D8A4B1EF1BF0B3EF1A
:103760001BF0B9EF1BF0000E2F6E2B0E2E6EBFEF6D
:103770001BF0000E2F6E2D0E2E6EBFEF1BF0000EF5
:103780003E24D96E010E3F20DA6E2EC0DFFFC9EF56
:103790001BF01CC011F01DC012F0000E3E24136E71
:1037A000010E3F20146E32C015F033C016F0DFEC6E
:1037B00024F011C01CF012C01DF0DFEF1BF012004E
:1037C000000E166E000E156E000E0F6E000E0E6EC1
:1037D000EEEF1BF0084A092AEEEF1BF0010E146E03
:1037E00008C0D9FF09C0DAFF200EDE18D8B4FBEFFD
:1037F0001BF0FDEF1BF01BEF1CF0F70E0A6EFF0E27
:103800000B6E08C0D9FF09C0DAFFDF500C6E0D6ADD
:103810000A500C260B500D220D5009E1050E0C5CD0
:10382000D8A015EF1CF017EF1CF01BEF1CF0000EDA
:10383000146E1BEF1CF014C010F0116A31EF1CF075
:1038400008C0D9FF09C0DAFFDF500A6E0A50016EC6
:10385000026AAAEC29F001C010F002C011F031EFA9
:103860001CF010501110D8A438EF1CF03AEF1CF0E7
:10387000EAEF1BF048EF1CF048EF1CF0000E0F6E53
:10388000010E0E6E44EF1CF0084A092A8AEF1CF064
:1038900008C0D9FF09C0DAFFDF500A6E0B6A0B506F
:1038A000000AD8B456EF1CF08AEF1CF00A502B0A1D
:1038B000D8B444EF1CF0060AD8B43EEF1CF08AEFEF
:1038C0001CF08AEF1CF0D00E0A6EFF0E0B6E08C0C3
:1038D000D9FF09C0DAFFDF500C6E0D6A0A500C26C2
:1038E0000B500D220C1E0D1E0C4A0D2A15C001F0A6
:1038F00016C002F0000E046E0A0E036E83EC2BF06D
:103900000C500124156E0D500220166E084A092A2B
:103910008AEF1CF0D00E0A6EFF0E0B6E08C0D9FFA6
:1039200009C0DAFFDF500C6E0D6A0A500C260B50EE
:103930000D220D500AE10A0E0C5CD8A0A2EF1CF07B
:10394000A5EF1CF0010EA6EF1CF0000E126E136A1C
:10395000BBEF1CF008C0D9FF09C0DAFFDF500A6EC8
:103960000A50016E026A23EC2BF001C012F002C073
:1039700013F0BBEF1CF012501310D8A4C2EF1CF0D0
:10398000C4EF1CF063EF1CF0C6EF1CF00E500F10DC
:10399000D8A4CDEF1CF0CFEF1CF0DDEF1CF015C06C
:1039A0000AF016C00BF00A1E0B1E0A4A0B2A0AC0A8
:1039B00008F00BC009F0E3EF1CF015C008F016C0CA
:1039C00009F0E3EF1CF01200096E0950D8B4EBEFD8
:1039D0001CF0EDEF1CF00FEF1DF004BEF4EF1CF037
:1039E000F2EF1CF00FEF1DF001C005F002C006F071
:1039F00003C007F004C008F0051E061E071E081EBF
:103A0000052A000E06220722082205C00BF006C078
:103A10000CF007C00DF008C00EF019EF1DF001C04A
:103A20000BF002C00CF003C00DF004C00EF019EF53
:103A30001DF00150021003100410D8A422EF1DF055
:103A400024EF1DF030EF1DF0000E016E000E026E2F
:103A5000000E036E000E046ED1EF1DF0D1EF1DF0CD
:103A6000960E0A6E3CEF1DF00A2AD8900E320D32E7
:103A70000C320B323CEF1DF0000E0B14056E000EE5
:103A80000C14066E000E0D14076EFE0E0E14086E5A
:103A90000550061007100810D8A451EF1DF053EF81
:103AA0001DF034EF1DF063EF1DF063EF1DF00A2AE7
:103AB000010E0B26000E0C220D220E22D8900E3283
:103AC0000D320C320B32000E0B14056E000E0C146E
:103AD000066E000E0D14076EFF0E0E14086E0550D4
:103AE000061007100810D8A478EF1DF07AEF1DF02B
:103AF00057EF1DF086EF1DF086EF1DF00A06D890F7
:103B00000B360C360D360E3686EF1DF00DBE8BEFE4
:103B10001DF08DEF1DF097EF1DF0020E0A6093EF80
:103B20001DF095EF1DF07EEF1DF097EF1DF00AB030
:103B30009CEF1DF09EEF1DF0A1EF1DF00D9EA1EF7B
:103B40001DF0D8900A320AC005F0066A076A086AB2
:103B500005C008F0076A066A056A05500B12065090
:103B60000C1207500D1208500E120950D8B4BBEFBA
:103B70001DF0BDEF1DF0C7EF1DF004BEC4EF1DF03A
:103B8000C2EF1DF0C7EF1DF00E8EC7EF1DF00BC08A
:103B900001F00CC002F00DC003F00EC004F0D1EF34
:103BA0001DF0120042C0D9FF43C0DAFFDECFF6FF9E
:103BB000DDCFF7FF0800F550250AD8A4E2EF1DF08D
:103BC000E4EF1DF098EF1EF042C0D9FF43C0DAFFCA
:103BD000DE2A000EDD22000E0001F56F000EF46FEC
:103BE000F4C0F8F0F5C0F9F0F669F76942C0D9FF02
:103BF00043C0DAFFDECFF6FFDDCFF7FF0800F55058
:103C0000640AD8B406EF1EF008EF1EF01CEF1EF099
:103C100042C0D9FF43C0DAFFDECFF6FFDDCFF7FFAA
:103C20000800F550690AD8A418EF1EF01AEF1EF02C
:103C30005EEF1EF01CEF1EF042C0D9FF43C0DAFF5A
:103C4000DE2A000EDD2244C0D9FF45C0DAFFDFCFF7
:103C500046F0020EDE26DFCF47F0000EDD2246C022
:103C6000D9FF47C0DAFFDECF48F0DDCF49F0000EC4
:103C700049BEFF0E4A6E4B6E4C6E4D6E4E6E4F6ED1
:103C800040C01CF041C01DF048C01EF049C01FF0EC
:103C90004AC020F04BC021F04CC022F04DC023F0B0
:103CA0004EC024F04FC025F051EC1AF01CC040F07B
:103CB0001DC041F0B7EF1EF0B7EF1EF042C0D9FFB4
:103CC00043C0DAFFDECFF6FFDDCFF7FF0800F55087
:103CD000250AD8A46EEF1EF070EF1EF089EF1EF0DB
:103CE00042C0D9FF43C0DAFFDE2A000EDD22000EFB
:103CF000026E250E016E40C003F041C004F070EC6E
:103D000024F0000E416E010E406EB7EF1EF0B7EFCB
:103D10001EF042C0D9FF43C0DAFFDE2A000EDD22CA
:103D2000000E416E000E406EB7EF1EF0B7EF1EF0B2
:103D300042C0D9FF43C0DAFFDECFF6FFDDCFF7FF89
:103D40000800F550016E026A40C003F041C004F063
:103D500070EC24F042C0D9FF43C0DAFFDE2A000E27
:103D6000DD22000E416E010E406EB7EF1EF0120014
:103D7000000E126E10BEC1EF1EF0BFEF1EF0D5EFA9
:103D80001EF0101E0F1E0E1E0D1E0C1E0B1E0A1EF8
:103D9000096C000E0A220B220C220D220E220F2289
:103DA0001022010E126ED5EF1EF008BEDCEF1EF0E1
:103DB000DAEF1EF0F0EF1EF0081E071E061E051EAD
:103DC000041E031E021E016C000E022203220422A6
:103DD0000522062207220822010E121AF0EF1EF019
:103DE00020EE13F0070EDE6AE806FDE209500A1025
:103DF0000B100C100D100E100F101010D8B403EF94
:103E00001FF005EF1FF063EF1FF0010E116E15EFAD
:103E10001FF0D89009360A360B360C360D360E36A2
:103E20000F361036112A15EF1FF010AE1AEF1FF0E3
:103E30001CEF1FF009EF1FF020EF1FF020EF1FF025
:103E4000D8901336143615361636173618361936F6
:103E50001A360950015C0A5002580B5003580C5096
:103E600004580D5005580E5006580F500758105062
:103E70000858D8A03EEF1FF040EF1FF053EF1FF09F
:103E80000950015E0A50025A0B50035A0C50045A52
:103E90000D50055A0E50065A0F50075A1050085A26
:103EA000138053EF1FF0D89010320F320E320D32C4
:103EB0000C320B320A320932112E20EF1FF063EF61
:103EC0001FF063EF1FF01250D8B469EF1FF06BEFD3
:103ED0001FF07DEF1FF01A1E191E181E171E161E4A
:103EE000151E141E136C000E142215221622172202
:103EF000182219221A227DEF1FF013C001F014C0FE
:103F000002F015C003F016C004F017C005F018C089
:103F100006F019C007F01AC008F08FEF1FF012006A
:103F2000000E126E08BE99EF1FF097EF1FF0ADEF75
:103F30001FF0081E071E061E051E041E031E021E7D
:103F4000016C000E0222032204220522062207220F
:103F50000822010E126EADEF1FF010BEB4EF1FF07D
:103F6000B2EF1FF0C6EF1FF0101E0F1E0E1E0D1E2B
:103F70000C1E0B1E0A1E096C000E0A220B220C22BC
:103F80000D220E220F221022C6EF1FF009500A1038
:103F90000B100C100D100E100F101010D8B4D3EF22
:103FA0001FF0D5EF1FF029EF20F0010E116EE5EFA5
:103FB0001FF0D89009360A360B360C360D360E3601
:103FC0000F361036112AE5EF1FF010AEEAEF1FF0A2
:103FD000ECEF1FF0D9EF1FF0F0EF1FF0F0EF1FF044
:103FE0000950015C0A5002580B5003580C500458F9
:103FF0000D5005580E5006580F50075810500858CD
:10400000D8A005EF20F007EF20F019EF20F00950BD
:10401000015E0A50025A0B50035A0C50045A0D50BC
:10402000055A0E50065A0F50075A1050085A19EFE9
:1040300020F0D89010320F320E320D320C320B328B
:104040000A320932112EF0EF1FF029EF20F029EF8C
:1040500020F01250D8B42FEF20F031EF20F043EFD2
:1040600020F0081E071E061E051E041E031E021E4B
:10407000016C000E022203220422052206220722DE
:10408000082243EF20F001C001F002C002F003C09B
:1040900003F004C004F005C005F006C006F007C038
:1040A00007F008C008F055EF20F01200000E0114D0
:1040B000096E000E02140A6E800E03140B6E7F0E42
:1040C00004140C6E09500A100B100C10D8A46BEFDE
:1040D00020F06DEF20F077EF20F0000E016E000E63
:1040E000026E000E036E000E046E77EF20F0000EDD
:1040F0000514096E000E06140A6E800E07140B6E6E
:104100007F0E08140C6E09500A100B100C10D8A466
:104110008CEF20F08EEF20F098EF20F0000E056E6F
:10412000000E066E000E076E000E086E98EF20F06F
:1041300004AE9DEF20F09FEF20F0BEEF20F001C015
:1041400009F002C00AF003C00BF004C00CF0091E15
:104150000A1E0B1E0C1E092A000E0A220B220C221C
:10416000000E0924016E000E0A20026E000E0B20C4
:10417000036E800E0C20046EBEEF20F008AEC3EF7D
:1041800020F0C5EF20F0E2EF20F005C009F006C0F6
:104190000AF007C00BF008C00CF0091E0A1E0B1E27
:1041A0000C1E092A000E0A220B220C22000E0924E2
:1041B000056E000E0A20066E000E0B20076E800EA4
:1041C0000C20086E000E011A000E021A000E031ACF
:1041D000800E041A000E051A000E061A000E071AA9
:1041E000800E081A0550015C06500258075003580B
:1041F00008500458D8B0FFEF20F001EF21F004EF91
:1042000021F0D89009EF21F0D88009EF21F009EFD3
:1042100021F01200AFEC2BF0320E0001726F000E95
:10422000736F000E746F000E756F6DEC18F072C036
:10423000A2F073C0A3F0000E0001606F000E616F6A
:10424000400E626F400E636FA2C064F0A3C065F0C1
:10425000FFEC22F02CEF21F0720ED36E41EC2BF02C
:10426000A8EC2BF0D7EC29F007C09AF008C09BF01F
:10427000B3EC2BF09AC017F09BC018F01AEC26F0A4
:1042800017C0A4F018C0A5F0A4C05EF0A5C05FF0F0
:10429000DAEC26F04EEC29F007C0A6F008C0A7F033
:1042A000B3EC2BF0A6C017F0A7C018F01AEC26F05C
:1042B00017C09CF018C09DF09CC05EF09DC05FF0E0
:1042C0007FEC23F07CEC29F007C09EF008C09FF043
:1042D000B3EC2BF09EC017F09FC018F01AEC26F03C
:1042E00017C0A8F018C0A9F0A8C05EF0A9C05FF080
:1042F000B2EC25F020EC29F007C0A0F008C0A1F036
:10430000B3EC2BF0A0C017F0A1C018F01AEC26F007
:1043100017C0AAF018C0ABF0AAC05EF0ABC05FF047
:104320004AEC25F0110EF66E080EF76E0900F550F6
:104330000001A65D0900F550A759D8B0A2EF21F001
:10434000A4EF21F02CEF21F0AAC08CF0ABC08DF0CF
:10435000A8C08EF0A9C08FF0A4C090F0A5C091F0C5
:104360000BEC09F02CEF21F02CEF21F02CEF21F0D9
:1043700000EF00F0573458345E6E5E50D8A4C3EF9F
:1043800021F0C5EF21F0D1EF21F0000E556E000EA7
:10439000566E000E576E000E586E62EF22F062EFFE
:1043A00022F055C059F056C05AF057C05BF058C0C3
:1043B0005CF0200EE1EF21F0D8905C325B325A3293
:1043C0005932E82EDCEF21F059505D6E578EFF0E0A
:1043D0005516FF0E5616FF0E5716000E5816960E5F
:1043E0005E5E5EBEF8EF21F0F6EF21F01CEF22F0EA
:1043F0005E50800A970FD8B000EF22F002EF22F053
:1044000010EF22F0000E556E000E566E000E576E25
:10441000000E586E62EF22F062EF22F010EF22F0F1
:10442000D89058325732563255325E3E10EF22F055
:1044300046EF22F046EF22F01F0E5E6422EF22F0DC
:1044400024EF22F03AEF22F0000E556E000E566E69
:10445000000E576E000E586E62EF22F062EF22F0EF
:104460003AEF22F0D89055365636573658365E0613
:104470003AEF22F05E50D8A440EF22F042EF22F053
:1044800032EF22F046EF22F046EF22F05D50D8B432
:104490004CEF22F04EEF22F058EF22F0581E571E3C
:1044A000561E556C000E56225722582258EF22F005
:1044B00055C055F056C056F057C057F058C058F088
:1044C00062EF22F0120020EECCF010EE70F00F0E32
:1044D000DBCFE3FFE806FCE26AC001F06BC002F04C
:1044E0006CC003F06DC004F0330E056E330E066E23
:1044F000F30E076E400E086E7DEC26F0D8A083EF19
:1045000022F085EF22F091EF22F0700E116E000E76
:10451000126EAD0E136E080E146E6EEC2BF0B6EF2D
:1045200022F06AC001F06BC002F06CC003F06DC0F5
:1045300004F0000E056E000E066E400E076E410E72
:10454000086E7DEC26F0D8A0A8EF22F0AAEF22F0AA
:10455000B6EF22F0700E116E000E126EA90E136EE1
:10456000080E146E6EEC2BF0B6EF22F0700E116E8A
:10457000000E126EA20E136E080E146E6EEC2BF06F
:10458000800E586E000E596EB00E5A6E080E5B6E9D
:104590006EC001F06FC002F0030E046EE80E036EF1
:1045A000FAEC23F001C05CF002C05DF0F1EC28F001
:1045B000700E116E000E126E800E136E000E146ED1
:1045C0006EEC2BF0700E116E000E126EB30E136EA9
:1045D000080E146E6EEC2BF0010E0B6E570E0C6E67
:1045E000080E0D6E010E9CEC2AF0010E0B6E700E83
:1045F0000C6E000E0D6E020E9CEC2AF01200000EE6
:10460000136E000E146E800E156E400E166E000EA8
:10461000456E000E466E800E476E3F0E486E64C0BB
:1046200001F065C002F0000E02BEFF0E036E046EC4
:10463000010EE4EC1CF001C041F002C042F003C0E6
:1046400043F004C044F021EC0DF041C00FF042C033
:1046500010F043C011F044C012F01DEC12F00FC076
:1046600068F010C069F011C06AF012C06BF0000E63
:104670002C6E000E2D6EC80E2E6E420E2F6E60C078
:1046800028F061C029F062C02AF063C02BF054EC1E
:1046900014F028C013F029C014F02AC015F02BC064
:1046A00016F068C00FF069C010F06AC011F06BC05E
:1046B00012F01DEC12F00FC055F010C056F011C0F2
:1046C00057F012C058F0BAEC21F055C06CF056C04B
:1046D0006DF06CC066F06DC067F000016735673340
:1046E00066336735673366336651BE6E6CC066F0FD
:1046F000030E66176639F00B0C09BD6E1200E8C098
:104700007AF0E9C07BF0EAC07CF07A0E586E000EB9
:10471000596EB00E5A6E080E5B6E5EC05CF05FC0E4
:104720005DF0F1EC28F020EEACF010EE6AF00F0E28
:10473000DBCFE3FFE806FCE26A0E116E000E126E9C
:104740007A0E136E000E146E6EEC2BF0010E0B6ED3
:104750006A0E0C6E000E0D6E010E9CEC2AF02C0EF3
:104760005E5C010E5F58D8B0B8EF23F0BAEF23F0CB
:10477000C5EF23F0010E0B6E960E0C6E080E0D6E3B
:10478000020E9CEC2AF0F3EF23F02C0E5E5C010E7F
:104790005F58D8A0CEEF23F0D0EF23F0E6EF23F060
:1047A000BC0E5E5C020E5F58D8B0D9EF23F0DBEF91
:1047B00023F0E6EF23F0010E0B6E8A0E0C6E080E4E
:1047C0000D6E020E9CEC2AF0F3EF23F0010E0B6E3F
:1047D0001D0E0C6E080E0D6E020E9CEC2AF0F3EF0F
:1047E00023F0F3EF23F0030E026EE80E016EECEC03
:1047F00027F01200000E066E04BE03EF24F001EF56
:1048000024F00BEF24F0036C041ED8B0042A010E30
:10481000066E0BEF24F002BE12EF24F010EF24F02E
:104820001AEF24F0016C021ED8B0022A010E061AFB
:104830001AEF24F0000E086E000E076E03500410ED
:10484000D8B425EF24F027EF24F05BEF24F0010E1D
:10485000056E31EF24F0D89003360436052A31EF87
:1048600024F004AE36EF24F038EF24F02BEF24F0E0
:104870003CEF24F03CEF24F0D89007360836035084
:10488000015C04500258D8A048EF24F04AEF24F00D
:1048900051EF24F00350015E0450025A078051EF9B
:1048A00024F0D89004320332052E3CEF24F05BEF65
:1048B00024F05BEF24F00650D8B461EF24F063EFEE
:1048C00024F069EF24F0076C081ED8B0082A69EFBD
:1048D00024F007C001F008C002F06FEF24F01200CE
:1048E00003500410D8B477EF24F079EF24F084EF6C
:1048F00024F003500410D8A480EF24F082EF24F0B9
:1049000089EF24F084EF24F00150B7EC2BF0DEEFB8
:1049100024F020EE04F00350D9260450DA22DE50B1
:10492000DE10D8B496EF24F098EF24F0B5EF24F021
:1049300020EE04F00350D9260450DA2210EE02F0E3
:104940000350E1260450E222DE50E65CE650800A85
:10495000096EDE50800A0958D8B0B1EF24F0B3EFE9
:1049600024F0DEEF24F0B5EF24F020EE02F0035047
:10497000D9260450DA22DECF05F0DDCF06F003C0E1
:10498000D9FF04C0DAFFDECF07F0DDCF08F0055015
:104990000724D96E06500820DA6E01C0DFFF20EE32
:1049A00002F00350D9260450DA22DE2A000EDD225E
:1049B000DEEF24F0DEEF24F0DEEF24F01200000141
:1049C000F8A1E5EF24F0E7EF24F0F3EF24F013C0B3
:1049D0000AF014C00BF011C00CF012C00DF02AEC5C
:1049E0002AF0F3EF24F016BEF8EF24F0FAEF24F0EB
:1049F00000EF25F015C01AF016C01BF004EF25F0EB
:104A0000000E1B6E000E1A6E000E196E000E186E50
:104A100018EF25F0000E026E200E016E11C003F09B
:104A200012C004F070EC24F0184A192A18EF25F08F
:104A30001A50185C1950800A176E1B50800A1758BC
:104A4000D8A025EF25F027EF25F00AEF25F000018B
:104A5000F8B12DEF25F02FEF25F03BEF25F013C037
:104A60000AF014C00BF011C00CF012C00DF02AECCB
:104A70002AF03BEF25F013C001F014C002F001EC66
:104A80002AF01A500124116E1B500220126E49EFB9
:104A900025F01200DFC07AF0E0C07BF0E1C07CF0CE
:104AA0005EC001F05FC002F05BEC04F001C080F07A
:104AB00002C081F0DCC07DF0DDC07EF0DEC07FF0A2
:104AC0007D0E586E000E596EB00E5A6E080E5B6E5B
:104AD00080C05CF081C05DF0F1EC28F021EE20F0A8
:104AE00010EE6AF00F0EDBCFE3FFE806FCE26A0E81
:104AF000116E000E126E7D0E136E000E146E6EECB3
:104B00002BF0010E0B6E6A0E0C6E000E0D6E010E78
:104B10009CEC2AF0F40E5E5C010E5F58D8B093EF67
:104B200025F095EF25F0A0EF25F0010E0B6E3B0E62
:104B30000C6E080E0D6E020E9CEC2AF0ABEF25F009
:104B4000010E0B6E490E0C6E080E0D6E020E9CECE3
:104B50002AF0ABEF25F0030E026EE80E016EECECCE
:104B600027F01200E5C07AF0E6C07BF0E7C07CF0E9
:104B70005EC001F05FC002F0E3EC0FF001C080F016
:104B800002C081F0E2C07DF0E3C07EF0E4C07FF0BF
:104B90007D0E586E000E596EB00E5A6E080E5B6E8A
:104BA00080C05CF081C05DF0F1EC28F021EE30F0C7
:104BB00010EE6AF00F0EDBCFE3FFE806FCE26A0EB0
:104BC000116E000E126E7D0E136E000E146E6EECE2
:104BD0002BF0010E0B6E6A0E0C6E000E0D6E010EA8
:104BE0009CEC2AF0F40E5E5C010E5F58D8B0FBEF2F
:104BF00025F0FDEF25F008EF26F0010E0B6E7E0E7E
:104C00000C6E080E0D6E020E9CEC2AF013EF26F0CF
:104C1000010E0B6E2C0E0C6E080E0D6E020E9CEC2F
:104C20002AF013EF26F0030E026EE80E016EECEC94
:104C300027F01200030E046EE80E036E17C001F099
:104C400018C002F032EC27F001C008F002C009F0F1
:104C5000000E0B6E0A0E0A6E76EC27F00850300933
:104C60001B6E000E046E640E036E17C001F018C0B8
:104C700002F032EC27F001C008F002C009F0000E8B
:104C80000B6E0A0E0A6E76EC27F0085030091C6E87
:104C9000000E046E0A0E036E17C001F018C002F079
:104CA00032EC27F001C008F002C009F0000E0B6ED4
:104CB0000A0E0A6E76EC27F0085030091D6E17C0F8
:104CC00008F018C009F0000E0B6E0A0E0A6E76ECA2
:104CD00027F0085030091E6E1B0E086E000E096E7C
:104CE000E0EC1BF008C019F009C01AF019C017F069
:104CF0001AC018F07CEF26F01200000E0114096EA5
:104D0000000E02140A6E800E03140B6E7F0E041444
:104D10000C6E09500A100B100C10D8A492EF26F05C
:104D200094EF26F09EEF26F0000E016E000E026E4C
:104D3000000E036E000E046E9EEF26F0000E0514AA
:104D4000096E000E06140A6E800E07140B6E7F0E9D
:104D500008140C6E09500A100B100C10D8A4B3EFF5
:104D600026F0B5EF26F0BFEF26F0000E056E000E20
:104D7000066E000E076E000E086EBFEF26F005509F
:104D800001180FE1065002180CE10750031809E161
:104D900008500418D8B4CFEF26F0D1EF26F0D4EFA6
:104DA00026F0D890D9EF26F0D880D9EF26F0D9EFA9
:104DB00026F01200EBC07AF0ECC07BF0EDC07CF086
:104DC0007A0E586E000E596EB00E5A6E080E5B6E5B
:104DD0005EC05CF05FC05DF0F1EC28F020EEBCF04E
:104DE00010EE6AF00F0EDBCFE3FFE806FCE26A0E7E
:104DF000116E000E126E7A0E136E000E146E6EECB3
:104E00002BF0010E0B6E6A0E0C6E000E0D6E010E75
:104E10009CEC2AF02C0E5E5C010E5F58D8B013EFAC
:104E200027F015EF27F020EF27F0010E0B6E710E23
:104E30000C6E080E0D6E020E9CEC2AF02BEF27F084
:104E4000010E0B6E640E0C6E080E0D6E020E9CECC5
:104E50002AF02BEF27F0030E026EE80E016EECEC49
:104E600027F01200000E066E000E056E03500410AF
:104E7000D8B43DEF27F03FEF27F071EF27F0010E98
:104E8000076E49EF27F0D89003360436072A49EF1A
:104E900027F004AE4EEF27F050EF27F043EF27F056
:104EA00054EF27F054EF27F0D8900536063603501C
:104EB000015C04500258D8A060EF27F062EF27F0A1
:104EC00069EF27F00350015E0450025A058069EF34
:104ED00027F0D89004320332072E54EF27F071EFF9
:104EE00027F005C001F006C002F012000A500B10B6
:104EF000D8B47DEF27F07FEF27F0ADEF27F0010E5C
:104F00000C6E89EF27F0D8900A360B360C2A89EF01
:104F100027F00BAE8EEF27F090EF27F083EF27F00E
:104F200094EF27F094EF27F00A50085C0B500958D3
:104F3000D8A09DEF27F09FEF27F0A5EF27F00A50AC
:104F4000085E0B50095AA5EF27F0D8900B320A32B1
:104F50000C2E94EF27F0ADEF27F008C008F009C041
:104F600009F01200000E046E000E036EDEEF27F053
:104F7000000E066E000E056E065009E10A0E055C75
:104F8000D8A0C5EF27F0C7EF27F0CBEF27F0DAEF77
:104F900027F0DAEF27F0054A062A065009E10A0E43
:104FA000055CD8A0D6EF27F0D8EF27F0CBEF27F09D
:104FB000DAEF27F0034A042ADEEF27F00150035C02
:104FC00002500458D8A0E7EF27F0E9EF27F0B8EF38
:104FD00027F0EBEF27F01200000E046E000E036EB8
:104FE00018EF28F0000E066E000E056E065009E15F
:104FF000510E055CD8A0FFEF27F001EF28F005EF78
:1050000028F014EF28F014EF28F0054A062A06507D
:1050100009E1510E055CD8A010EF28F012EF28F03E
:1050200005EF28F014EF28F0034A042A18EF28F0BF
:105030000350015C04500258D8B021EF28F023EF50
:1050400028F0F2EF27F025EF28F0120009C00DF04C
:105050000AC00EF007C00FF008C010F032EF28F0C1
:1050600032EF28F00D500B6E0E500C6E0D4A0E2ACA
:105070000BC0F6FF0CC0F7FFF86A0FC0D9FF10C0D5
:10508000DAFF0F4A102A070EF76403D00800F55024
:1050900005D0F6CFE1FFF7CFE2FFE750DF6EDF503C
:1050A000D8A455EF28F057EF28F032EF28F059EF49
:1050B00028F0120052C056F053C057F0000E000105
:1050C000F36F000EF26F7AEF28F050C040F051C03D
:1050D00041F0560E426E000E436E54C044F055C06F
:1050E00045F0D2EC1DF040500001F2274150F3236F
:1050F0007AEF28F056C0F6FF57C0F7FF0800F550CA
:105100000009D8A486EF28F088EF28F065EF28F092
:10511000F2C050F0F3C051F01200A5EF28F009C022
:10512000F6FF0AC0F7FFF86A070EF76403D008001D
:10513000F55005D0F6CFE1FFF7CFE2FFE75050EC96
:105140002AF0094A0A2AA5EF28F009C0F6FF0AC08A
:10515000F7FFF86A070EF76403D00800F55005D092
:10516000F6CFE1FFF7CFE2FFE7500009D8A4BBEF8D
:1051700028F0BDEF28F08FEF28F0BFEF28F01200E5
:10518000300EF66E570EF76E000EF86E01EE20F040
:1051900010EE20F00900F5CFEEFFE550E150FAE106
:1051A000C40EF66E550EF76E000EF86E00EEACF003
:1051B00010EE42F00900F5CFEEFFE550E150FAE1C4
:1051C00001EE00F0200EEE6AE806FDE100EEEEF0E2
:1051D000110EEE6AE806FDE1000EF86E00010AEF1E
:1051E00021F05C0E0001626F000E636F58C064F026
:1051F00059C065F0000E676F000E666F000E696F94
:10520000000E686F640E506E000E516E5AC052F060
:105210005BC053F0620E546E000E556E5AEC28F0CF
:1052200050C060F051C061F0000166515824D96E41
:1052300067515920DA6E000EDF6E1FEF29F0120061
:10524000C29AC298C286C284C28227EF29F0C2A243
:105250002CEF29F02EEF29F027EF29F0C2820B0E58
:10526000026EB80E016EECEC27F0C3CFFEF0C4CF97
:10527000FCF00001FD6B000EC36E000EC46EFC510D
:10528000FD6FFC6BFC51FE11FA6FFD51FB6FFAC014
:1052900007F0FBC008F04DEF29F01200C29AC29847
:1052A000C296C284C28255EF29F0C2A25AEF29F0F9
:1052B0005CEF29F055EF29F0C2820B0E026EB80E9A
:1052C000016EECEC27F0C3CFFEF0C4CFFCF0000180
:1052D000FD6B000EC36E000EC46EFC51FD6FFC6BC7
:1052E000FC51FE11FA6FFD51FB6FFAC007F0FBC0D5
:1052F00008F07BEF29F01200C29AC298C286C294CD
:10530000C28283EF29F0C2A288EF29F08AEF29F048
:1053100083EF29F0C2820B0E026EB80E016EECEC28
:1053200027F0C3CFFEF0C4CFFCF00001FD6B000EF0
:10533000C36E000EC46EFC51FD6FFC6BFC51FE1180
:10534000FA6FFD51FB6FFAC007F0FBC008F0A9EF40
:1053500029F01200010E076E200E01180210D8B4B9
:10536000B4EF29F0B6EF29F0D1EF29F0F70E036E74
:10537000FF0E046E01C005F002C006F003500526C2
:1053800004500622065009E1050E055CD8A0CBEFBB
:1053900029F0CDEF29F0D1EF29F0000E076ED1EF03
:1053A00029F007C001F0026AD6EF29F01200C29A74
:1053B000C298C296C294C282DEEF29F0C2A2E3EF85
:1053C00029F0E5EF29F0DEEF29F0C2820B0E026E24
:1053D000B80E016EECEC27F0C3CFFEF0C4CFFCF0AA
:1053E0000001FD6BFC51FD6FFC6BFC51FE11FA6F6F
:1053F000FD51FB6FFAC007F0FBC008F000EF2AF088
:10540000120001C005F002C006F00BEF2AF0014ABD
:10541000022A0BEF2AF001C0D9FF02C0DAFFDF50E9
:10542000D8A415EF2AF017EF2AF007EF2AF019EFAA
:105430002AF005C003F006C004F0031E041E034A50
:10544000042A01500324016E02500420026E29EF49
:105450002AF01200000E106E000E0F6E3DEF2AF0C3
:105460000EC001F0026A0CC003F00DC004F070EC35
:1054700024F00F4A102A3DEF2AF00F500A24D96E6B
:1054800010500B20DA6EDF500E6E0E50D8A44BEF8A
:105490002AF04DEF2AF030EF2AF04FEF2AF01200F9
:1054A000086E08C007F0F00E07168A500F0B0710A1
:1054B0008A6E8A808A8200F08A92000E026E010E45
:1054C000016EECEC27F008C007F0073AF00E071663
:1054D0008A500F0B07108A6E8A8200F08A92000EA3
:1054E000026E030E016EECEC27F01200086E08C08D
:1054F00007F0F00E07168A500F0B07108A6E8A907D
:105500008A8200F08A92000E026E010E016EECECAF
:1055100027F008C007F0073AF00E07168A500F0B65
:1055200007108A6E8A8200F08A92000E026E030EC5
:10553000016EECEC27F012000E6E000E0F6E020EE4
:105540000E60A5EF2AF0A7EF2AF0B0EF2AF00B507B
:105550000F0B80090F6E0F5076EC2AF0B9EF2AF08E
:105560000B500F0BC0090F6E0F5076EC2AF0B9EFFD
:105570002AF00CC009F00DC00AF08DEC28F01200E2
:1055800014BECDEF2AF0145006E11304D8B0CBEFCF
:105590002AF0CDEF2AF0DBEF2AF013C015F014C08B
:1055A00016F0151E161E154A162A15C013F016C041
:1055B00014F0E1EF2AF013C013F014C014F0E1EF7F
:1055C0002AF01200536F696C2053746174653A209D
:1055D000000000004E696768744E4461793A20000B
:1055E00000000000416E673A00000000000000006B
:1055F000000000003030303030303030303030306B
:105600003030303030300150021003100410D8B464
:105610000CEF2BF00EEF2BF018EF2BF0000E011A11
:10562000000E021A000E031A800E041A18EF2BF057
:1056300001C001F002C002F003C003F004C004F096
:1056400022EF2BF01200D00E036EFF0E046E01C08D
:1056500005F002C006F0035005260450062206504D
:105660000AE10A0E055CD8A038EF2BF03BEF2BF0D7
:10567000010E3CEF2BF0000E016E026A40EF2BF0A2
:105680001200000E936E000E026E0F0E016EECEC17
:1056900027F0020E76EC2AF0280E76EC2AF0010EA6
:1056A00076EC2AF00C0E76EC2AF0060E76EC2AF058
:1056B00012006EC060F06FC061F070C062F071C027
:1056C00063F072C064F073C065F0FFEC22F074C048
:1056D00001F075C002F0B2EC27F0120011C001F029
:1056E00012C002F001EC2AF001501124076E0250A2
:1056F0001220086E13C009F014C00AF026EC28F03E
:1057000082EF2BF0120001500302F3CF05F0F4CF2B
:1057100006F001500402F350062602500302F35033
:10572000062605C001F006C002F097EF2BF012002C
:1057300054656D7020433A20000000000000000016
:1057400048756D696469747920253A20000000006D
:105750009268C280090EC16EAD0EC06E12009494A4
:105760000C0EBD6E1200010E76EC2AF01200120033
:020000040020DA
:08000000FFFFFFFFFFFFFFFF00
:020000040030CA
:0E00000000091F1EFF0381FF0FC00FE00F401D
:00000001FF
